00COTAHIST.2026BOVESPA 20260323                                                                                                                                                                                                                      
012026032302ONCO3       010ONCOCLINICASON      NM   R$  000000000018900000000002620000000000171000000000021800000000002450000000000244000000000024509754000000000027431300000000005990940200000000000000009999123100000010000000000000BRONCOACNOR6102
012026032302OPCT3       010OCEANPACT   ON      NM   R$  000000000089900000000009180000000000896000000000090600000000009160000000000912000000000091602246000000000000446400000000000404785900000000000000009999123100000010000000000000BROPCTACNOR0100
012026032302ORVR3       010ORIZON      ON      NM   R$  000000000658700000000068070000000006576000000000676200000000067600000000006743000000000676003770000000000000649400000000004391687200000000000000009999123100000010000000000000BRORVRACNOR0101
012026032302PRNR3       010PRINER      ON      NM   R$  000000000189800000000020080000000001898000000000197500000000019830000000001971000000000198402192000000000000411500000000000812927700000000000000009999123100000010000000000000BRPRNRACNOR4111
012026032302PSSA3       010PORTO SEGUROON      NM   R$  000000000488300000000049640000000004823000000000491200000000049170000000004916000000000491705506000000000001196900000000005879525800000000000000009999123100000010000000000000BRPSSAACNOR7161
012026032302RIAA3       010RIACHUELO   ON      NM   R$  000000000086500000000009350000000000863000000000091600000000009270000000000925000000000092705411000000000002344400000000002149227900000000000000009999123100000010000000000000BRRIAAACNOR2100
012026032302RNEW3       010RENOVA      ON      N2   R$  000000000011600000000001200000000000115000000000011600000000001170000000000114000000000011700073000000000000030700000000000003588500000000000000009999123100000010000000000000BRRNEWACNOR8113
012026032302RNEW4       010RENOVA      PN      N2   R$  000000000011200000000001170000000000109000000000011100000000001100000000000110000000000011300139000000000000110400000000000012343900000000000000009999123100000010000000000000BRRNEWACNPR5113
012026032302ROMI3       010ROMI        ON      NM   R$  000000000071700000000007320000000000713000000000072600000000007320000000000729000000000073200846000000000000267300000000000194242100000000000000009999123100000010000000000000BRROMIACNOR8201
012026032302ENGI11      010ENERGISA    UNT     N2   R$  000000000499800000000050980000000004963000000000504400000000050510000000005035000000000505516089000000000002736200000000013802659000000000000000009999123100000010000000000000BRENGICDAM16140
012026032302ENGI3       010ENERGISA    ON      N2   R$  000000000127000000000012830000000001246000000000125700000000012800000000001252000000000128100015000000000000003000000000000003771500000000000000009999123100000010000000000000BRENGIACNOR0150
012026032302ENGI4       010ENERGISA    PN      N2   R$  000000000092700000000009510000000000920000000000094200000000009360000000000937000000000094700023000000000000004800000000000004525300000000000000009999123100000010000000000000BRENGIACNPR7146
012026032302ENJU3       010ENJOEI      ON      NM   R$  000000000010700000000001160000000000106000000000011000000000001110000000000111000000000011300387000000000001658900000000000184062500000000000000009999123100000010000000000000BRENJUACNOR9100
012026032302ENMT3       010ENERGISA MT ON  ED       R$  000000000500000000000050000000000005000000000000500000000000050000000000003000000000000505000003000000000000000300000000000001500000000000000000009999123100000010000000000000BRENMTACNOR5126
012026032302EPAR3       010EMBPAR S/A  ON           R$  000000000032900000000003300000000000325000000000032600000000003250000000000325000000000032600018000000000000004700000000000001534500000000000000009999123100000010000000000000BREPARACNOR9107
012026032302EQPA3       010EQTL PARA   ON           R$  000000000064900000000006640000000000649000000000065700000000006640000000000655000000000066300022000000000000003600000000000002366900000000000000009999123100000010000000000000BREQPAACNOR1112
012026032302EQTL3       010EQUATORIAL  ON      NM   R$  000000000407600000000041860000000004041000000000414900000000041360000000004136000000000414319590000000000005613300000000023289594800000000000000009999123100000010000000000000BREQTLACNOR0135
012026032302HYPE3       010HYPERA      ON      NM   R$  000000000224900000000023120000000002248000000000229200000000022940000000002293000000000229413150000000000003318200000000007606499300000000000000009999123100000010000000000000BRHYPEACNOR0150
012026032302IBOV11      010IBOVESPA    IBO/         R$  000001820680000000182068000000018206800000001820680000000182068000000000000000000000000000000007000000000000010332000000001881126576000000000000009999123100001000000000000000BRIBOVINDM18016
012026032302ITUB3       010ITAUUNIBANCOON  EJ  N1   R$  000000000410900000000042050000000004080000000000417700000000041780000000004178000000000419904645000000000001452300000000006067002500000000000000009999123100000010000000000000BRITUBACNOR4367
012026032302ITUB4       010ITAUUNIBANCOPN  EJ  N1   R$  000000000425400000000043140000000004206000000000427500000000042780000000004276000000000428042872000000000027535500000000117739770100000000000000009999123100000010000000000000BRITUBACNPR1367
012026032302MATD3       010MATER DEI   ON      NM   R$  000000000056000000000005900000000000534000000000055900000000005800000000000580000000000058402291000000000000615900000000000344349100000000000000009999123100000010000000000000BRMATDACNOR4106
012026032302MBRF3       010MARFRIG     ON  ATZ NM   R$  000000000169900000000019500000000001663000000000183800000000018980000000001895000000000190028570000000000017258600000000031734722600000000000000009999123100000010000000000000BRMBRFACNOR1101
012026032302NEOE3       010NEOENERGIA  ON      NM   R$  000000000332200000000033240000000003319000000000332200000000033220000000003322000000000332401737000000000001135900000000003773904600000000000000009999123100000010000000000000BRNEOEACNOR3127
012026032302WLMM4       010WLM IND COM PN           R$  000000000223400000000022350000000002230000000000223300000000022350000000002161000000000220100004000000000000000500000000000001116800000000000000009999123100000010000000000000BRWLMMACNPR3125
012026032302TASA3       010TAURUS ARMASON      N2   R$  000000000054100000000005500000000000541000000000054600000000005470000000000542000000000054700043000000000000010500000000000005741000000000000000009999123100000010000000000000BRTASAACNOR7106
012026032302GMAT3       010GRUPO MATEUSON      NM   R$  000000000043400000000004510000000000427000000000043900000000004480000000000447000000000044814824000000000025924500000000011396628200000000000000009999123100000010000000000000BRGMATACNOR7109
012026032302JALL3       010JALLESMACHADON      NM   R$  000000000032900000000003290000000000316000000000032000000000003230000000000323000000000032401453000000000001216400000000000390439800000000000000009999123100000010000000000000BRJALLACNOR0106
012026032302PFRM3       010PROFARMA    ON      NM   R$  000000000074800000000007650000000000735000000000074800000000007630000000000758000000000076301735000000000000544100000000000407525100000000000000009999123100000010000000000000BRPFRMACNOR1122
012026032302PGMN3       010PAGUE MENOS ON      NM   R$  000000000060800000000006350000000000608000000000062700000000006320000000000629000000000063307344000000000003648600000000002289472600000000000000009999123100000010000000000000BRPGMNACNOR8106
012026032302SUZB3       010SUZANO S.A. ON      NM   R$  000000000505100000000051800000000005010000000000513200000000051620000000005160000000000516316947000000000005039000000000025863822600000000000000009999123100000010000000000000BRSUZBACNOR0135
012026032302VALE3       010VALE        ON      NM   R$  000000000765600000000078420000000007597000000000776300000000077490000000007748000000000774944277000000000023384500000000181541161000000000000000009999123100000010000000000000BRVALEACNOR0219
012026032302VIVR3       010VIVER       ON      NM   R$  000000000004000000000000420000000000040000000000004100000000000400000000000040000000000004100059000000000000107900000000000004430800000000000000009999123100000010000000000000BRVIVRACNOR4126
012026032302VIVT3       010TELEF BRASILON           R$  000000000408100000000041100000000004047000000000407400000000040470000000004044000000000405019702000000000005873900000000023933525100000000000000009999123100000010000000000000BRVIVTACNOR0200
012026032302VLID3       010VALID       ON      NM   R$  000000000197100000000020560000000001956000000000201200000000020560000000002049000000000205602571000000000000437200000000000879755500000000000000009999123100000010000000000000BRVLIDACNOR5148
012026032302VITT3       010VITTIA      ON      NM   R$  000000000042700000000004280000000000415000000000042200000000004210000000000419000000000042100697000000000000477500000000000201638100000000000000009999123100000010000000000000BRVITTACNOR4113
012026032302VIVA3       010VIVARA S.A. ON      NM   R$  000000000260000000000027040000000002594000000000265900000000026640000000002664000000000269119676000000000004244300000000011286403500000000000000009999123100000010000000000000BRVIVAACNOR0109
012026032302VBBR3       010VIBRA       ON      NM   R$  000000000296100000000031040000000002961000000000306400000000030570000000003057000000000306324366000000000012574800000000038541579800000000000000009999123100000010000000000000BRVBBRACNOR1114
012026032302SMFT3       010SMART FIT   ON      NM   R$  000000000184400000000019150000000001843000000000189700000000019040000000001903000000000190819136000000000005418300000000010282940300000000000000009999123100000010000000000000BRSMFTACNOR1118
012026032302SMTO3       010SAO MARTINHOON      NM   R$  000000000187900000000019390000000001823000000000189800000000019150000000001910000000000191609169000000000002718400000000005161215600000000000000009999123100000010000000000000BRSMTOACNOR3129
012026032302TPIS3       010TRIUNFO PARTON      NM   R$  000000000069500000000007080000000000661000000000069100000000006940000000000691000000000069400232000000000000072900000000000050432100000000000000009999123100000010000000000000BRTPISACNOR8120
012026032302TRAD3       010TC          ON      NM   R$  000000000022300000000002350000000000223000000000023100000000002300000000000229000000000023000040000000000000010100000000000002336300000000000000009999123100000010000000000000BRTRADACNOR3102
012026032302TRIS3       010TRISUL      ON      NM   R$  000000000055000000000005810000000000544000000000057300000000005770000000000576000000000057801322000000000000693200000000000397555700000000000000009999123100000010000000000000BRTRISACNOR4122
012026032302TTEN3       0103TENTOS     ON      NM   R$  000000000154900000000015710000000001526000000000155200000000015520000000001552000000000155505468000000000001304700000000002025415800000000000000009999123100000010000000000000BRTTENACNOR0105
012026032302TUPY3       010TUPY        ON      NM   R$  000000000115700000000012360000000001129000000000120000000000012310000000001230000000000123207374000000000001963700000000002358310800000000000000009999123100000010000000000000BRTUPYACNOR1185
012026032302UCAS3       010UNICASA     ON      NM   R$  000000000014600000000001520000000000146000000000015000000000001520000000000150000000000015200039000000000000009400000000000001410500000000000000009999123100000010000000000000BRUCASACNOR1114
012026032302UGPA3       010ULTRAPAR    ON      NM   R$  000000000264800000000027740000000002646000000000274000000000027420000000002741000000000274716676000000000005611700000000015380355000000000000000009999123100000010000000000000BRUGPAACNOR8159
012026032302VAMO3       010VAMOS       ON      NM   R$  000000000033200000000003530000000000328000000000034500000000003500000000000349000000000035011204000000000017563800000000006071676200000000000000009999123100000010000000000000BRVAMOACNOR7110
012026032302YDUQ3       010YDUQS PART  ON      NM   R$  000000000105800000000011040000000001050000000000108500000000011000000000001100000000000110112169000000000004504300000000004890922000000000000000009999123100000010000000000000BRYDUQACNOR3108
012026032302TKNO4       010TEKNO       PN           R$  000000002220000000000222100000000022200000000002220800000000222010000000022110000000002270000008000000000000005000000000000111040900000000000000009999123100000010000000000000BRTKNOACNPR5080
012026032302TOKY3       010GRUPO TOKY  ON      NM   R$  000000000004200000000000430000000000039000000000004000000000000390000000000039000000000004000138000000000000778000000000000031471100000000000000009999123100000010000000000000BRTOKYACNOR5101
012026032302TOTS3       010TOTVS       ON      NM   R$  000000000344500000000036340000000003445000000000354100000000035050000000003505000000000351820862000000000005301200000000018773281500000000000000009999123100000010000000000000BRTOTSACNOR8150
012026032302WEST3       010WESTWING    ON      NM   R$  000000000076000000000008300000000000731000000000078500000000007500000000000750000000000076300299000000000000171500000000000134737100000000000000009999123100000010000000000000BRWESTACNOR3101
012026032302WHRL3       010WHIRLPOOL   ON           R$  000000000041300000000004210000000000413000000000041400000000004180000000000414000000000042000014000000000000007800000000000003236500000000000000009999123100000010000000000000BRWHRLACNOR5135
012026032302WHRL4       010WHIRLPOOL   PN           R$  000000000044100000000004500000000000441000000000044400000000004410000000000445000000000044800024000000000000009600000000000004271900000000000000009999123100000010000000000000BRWHRLACNPR2135
012026032302WIZC3       010WIZ CO      ON      NM   R$  000000000086000000000008800000000000850000000000086800000000008670000000000867000000000087203027000000000000715600000000000621348700000000000000009999123100000010000000000000BRWIZCACNOR5104
012026032302QUAL3       010QUALICORP   ON      NM   R$  000000000018000000000001990000000000180000000000019300000000001970000000000196000000000019702992000000000004071500000000000786586500000000000000009999123100000010000000000000BRQUALACNOR6122
012026032302RPAD3       010ALFA HOLDINGON           R$  000000000054000000000005600000000000540000000000054200000000005600000000000521000000000057000005000000000000002900000000000001572000000000000000009999123100000010000000000000BRRPADACNOR1199
012026032302RPAD5       010ALFA HOLDINGPNA          R$  000000000061500000000006150000000000580000000000061400000000006150000000000601000000000064000010000000000000031400000000000019283300000000000000009999123100000010000000000000BRRPADACNPA4222
012026032302RPAD6       010ALFA HOLDINGPNB          R$  000000000053000000000005510000000000530000000000054500000000005510000000000551000000000060000004000000000000001200000000000000654100000000000000009999123100000010000000000000BRRPADACNPB2199
012026032302RSUL4       010RIOSULENSE  PN           R$  000000000620000000000062950000000006046000000000614700000000061990000000006054000000000622000066000000000000007600000000000046722500000000000000009999123100000010000000000000BRRSULACNPR3116
012026032302RVEE3       010REVEE       ON      NM   R$  000000000008000000000000870000000000080000000000008400000000000870000000000087000000000010500013000000000000007000000000000000593100000000000000009999123100000010000000000000BRRVEEACNOR9102
012026032302SANB11      010SANTANDER BRUNT          R$  000000000297500000000030400000000002956000000000301800000000030160000000003015000000000301612496000000000003861200000000011654187500000000000000009999123100000010000000000000BRSANBCDAM13172
012026032302SANB3       010SANTANDER BRON           R$  000000000145500000000015030000000001455000000000149400000000015000000000001497000000000150000433000000000000099200000000000148216100000000000000009999123100000010000000000000BRSANBACNOR8179
012026032302SANB4       010SANTANDER BRPN           R$  000000000148500000000015350000000001485000000000152100000000015250000000001524000000000153200335000000000000109400000000000166450600000000000000009999123100000010000000000000BRSANBACNPR5179
012026032302ESPA3       010ESPACOLASER ON      NM   R$  000000000011300000000001210000000000113000000000011700000000001190000000000118000000000012000431000000000000459800000000000054253800000000000000009999123100000010000000000000BRESPAACNOR7105
012026032302ESTR3       010ESTRELA     ON           R$  000000000030100000000003010000000000301000000000030100000000003010000000000300000000000060000001000000000000000200000000000000060200000000000000009999123100000010000000000000BRESTRACNOR3144
012026032302MDIA3       010M.DIASBRANCOON      NM   R$  000000000214900000000022120000000002142000000000219500000000022120000000002212000000000221402666000000000000618900000000001358603800000000000000009999123100000010000000000000BRMDIAACNOR7151
012026032302TASA4       010TAURUS ARMASPN      N2   R$  000000000054300000000005500000000000535000000000054100000000005420000000000541000000000054200860000000000000240400000000000130229500000000000000009999123100000010000000000000BRTASAACNPR4106
012026032302TCSA3       010TECNISA     ON      NM   R$  000000000012800000000001370000000000127000000000013100000000001280000000000127000000000012900207000000000000109500000000000014378300000000000000009999123100000010000000000000BRTCSAACNOR3112
012026032302TECN3       010TECHNOS     ON      NM   R$  000000000082700000000008720000000000827000000000084600000000008520000000000851000000000085200158000000000000027700000000000023434200000000000000009999123100000010000000000000BRTECNACNOR6111
012026032302TELB3       010TELEBRAS    ON           R$  000000000142500000000014890000000001425000000000145300000000014750000000001475000000000148500030000000000000004800000000000006978200000000000000009999123100000010000000000000BRTELBACNOR2142
012026032302TELB4       010TELEBRAS    PN           R$  000000000091500000000009200000000000881000000000090400000000008870000000000886000000000091500013000000000000002200000000000001988900000000000000009999123100000010000000000000BRTELBACNPR9142
012026032302TEND3       010TENDA       ON      NM   R$  000000000301900000000031850000000003000000000000313000000000031580000000003157000000000315810077000000000001742200000000005454342900000000000000009999123100000010000000000000BRTENDACNOR4114
012026032302TFCO4       010TRACK FIELD PN      N2   R$  000000000159500000000016480000000001579000000000162700000000016410000000001625000000000164103457000000000000916100000000001491177000000000000000009999123100000010000000000000BRTFCOACNPR8121
012026032302TGMA3       010TEGMA       ON      NM   R$  000000000283000000000030090000000002830000000000295000000000029500000000002945000000000295203662000000000000650600000000001919756900000000000000009999123100000010000000000000BRTGMAACNOR7150
012026032302TIMS3       010TIM         ON      NM   R$  000000000267400000000027050000000002637000000000268100000000026920000000002684000000000269214394000000000005022600000000013467727000000000000000009999123100000010000000000000BRTIMSACNOR5129
012026032302PINE3       010PINE        ON      N2   R$  000000000112100000000012110000000001121000000000116000000000012110000000001136000000000121200014000000000000009600000000000011140700000000000000009999123100000010000000000000BRPINEACNOR1160
012026032302PINE4       010PINE        PN      N2   R$  000000000113800000000012310000000001127000000000119100000000012290000000001227000000000122903003000000000000817700000000000974636400000000000000009999123100000010000000000000BRPINEACNPR8160
012026032302PLAS3       010PLASCAR PARTON           R$  000000000039700000000003970000000000397000000000039700000000003970000000000390000000000047900002000000000000000300000000000000119100000000000000009999123100000010000000000000BRPLASACNOR2106
012026032302PLPL3       010PLANOEPLANO ON      NM   R$  000000000133100000000013920000000001320000000000136700000000013820000000001380000000000138208092000000000002049800000000002803362100000000000000009999123100000010000000000000BRPLPLACNOR5106
012026032302SLCE3       010SLC AGRICOLAON      NM   R$  000000000182500000000018290000000001771000000000180500000000018250000000001823000000000182810910000000000003181400000000005744377400000000000000009999123100000010000000000000BRSLCEACNOR2128
012026032302SYNE3       010SYN PROP TECON      NM   R$  000000000045400000000004750000000000454000000000046800000000004750000000000471000000000047501200000000000000377700000000000177037300000000000000009999123100000010000000000000BRSYNEACNOR2107
012026032302PNVL3       010DIMED       ON      NM   R$  000000000139500000000014640000000001382000000000143600000000014490000000001449000000000145403702000000000000792700000000001138724000000000000000009999123100000010000000000000BRPNVLACNOR9213
012026032302POMO3       010MARCOPOLO   ON      N2   R$  000000000055100000000005830000000000547000000000057300000000005810000000000581000000000058201198000000000000977700000000000560697500000000000000009999123100000010000000000000BRPOMOACNOR0105
012026032302POMO4       010MARCOPOLO   PN      N2   R$  000000000058800000000006190000000000587000000000060900000000006130000000000612000000000061313290000000000009766600000000005949636300000000000000009999123100000010000000000000BRPOMOACNPR7105
012026032302RADL3       010RAIADROGASILON      NM   R$  000000000230500000000023420000000002271000000000230800000000023280000000002328000000000232931311000000000012958300000000029915210600000000000000009999123100000010000000000000BRRADLACNOR0165
012026032302WDCN3       010WDC NETWORKSON      NM   R$  000000000025200000000002520000000000242000000000024600000000002480000000000246000000000024800034000000000000014600000000000003597500000000000000009999123100000010000000000000BRWDCNACNOR2100
012026032302WEGE3       010WEG         ON  EJ  NM   R$  000000000465200000000047810000000004628000000000472700000000047250000000004724000000000472517550000000000005584500000000026397983600000000000000009999123100000010000000000000BRWEGEACNOR0235
012026032302SAPR11      010SANEPAR     UNT     N2   R$  000000000426700000000045240000000004267000000000445700000000044850000000004479000000000449108101000000000001438800000000006413011700000000000000009999123100000010000000000000BRSAPRCDAM13121
012026032302SAPR3       010SANEPAR     ON      N2   R$  000000000099300000000010590000000000993000000000103600000000010520000000001048000000000105201134000000000000269100000000000278811000000000000000009999123100000010000000000000BRSAPRACNOR9162
012026032302SAPR4       010SANEPAR     PN      N2   R$  000000000081600000000008630000000000816000000000085000000000008580000000000857000000000085902355000000000001181300000000001004821200000000000000009999123100000010000000000000BRSAPRACNPR6162
012026032302FHER3       010FER HERINGERON      NM   R$  000000000040000000000004270000000000400000000000041300000000004250000000000415000000000042000026000000000000009200000000000003799900000000000000009999123100000010000000000000BRFHERACNOR5103
012026032302FIQE3       010UNIFIQUE    ON      NM   R$  000000000057200000000006110000000000572000000000059600000000006090000000000607000000000061002279000000000001954000000000001165774300000000000000009999123100000010000000000000BRFIQEACNOR5112
012026032302BEES4       010BANESTES    PN           R$  000000000086600000000008860000000000865000000000087100000000008660000000000860000000000088200021000000000000004000000000000003486900000000000000009999123100000010000000000000BRBEESACNPR6341
012026032302BGIP4       010BANESE      PN           R$  000000000347300000000036580000000003473000000000355000000000036580000000003600000000000365900009000000000000001400000000000004971000000000000000009999123100000010000000000000BRBGIPACNPR8215
012026032302BHIA3       010CASAS BAHIA ON      NM   R$  000000000029500000000003020000000000286000000000029000000000002870000000000287000000000028802856000000000004883500000000001419803400000000000000009999123100000010000000000000BRBHIAACNOR1104
012026032302BIED3       010BIOMA EDUC  ON           R$  000000000064900000000006490000000000638000000000064000000000006380000000000638000000000064600009000000000000006500000000000004163500000000000000009999123100000010000000000000BRBIEDACNOR2101
012026032302CSED3       010CRUZEIRO EDUON      NM   R$  000000000057800000000006090000000000578000000000059800000000005960000000000596000000000060001249000000000000378000000000000226284700000000000000009999123100000010000000000000BRCSEDACNOR9107
012026032302CSMG3       010COPASA      ON      NM   R$  000000000540000000000055940000000005400000000000553200000000055060000000005506000000000551715536000000000002854600000000015793643600000000000000009999123100000010000000000000BRCSMGACNOR5184
012026032302EGIE3       010ENGIE BRASILON      NM   R$  000000000316400000000032440000000003135000000000321500000000032050000000003205000000000322106722000000000001316100000000004231969100000000000000009999123100000010000000000000BREGIEACNOR9132
012026032302NGRD3       010NEOGRID     ON      NM   R$  000000000290500000000029200000000002885000000000290900000000029100000000002910000000000293900045000000000000013900000000000040443800000000000000009999123100000010000000000000BRNGRDACNOR3106
012026032302NUTR3       010NUTRIPLANT  ON           R$  000000000023400000000002400000000000234000000000023600000000002350000000000234000000000023700015000000000000001500000000000000354100000000000000009999123100000010000000000000BRNUTRACNOR0104
012026032302HBOR3       010HELBOR      ON      NM   R$  000000000027900000000002980000000000271000000000028800000000002920000000000291000000000029201655000000000001716900000000000495586700000000000000009999123100000010000000000000BRHBORACNOR3120
012026032302HBRE3       010HBR REALTY  ON      NM   R$  000000000028300000000002960000000000283000000000029100000000002930000000000293000000000029600377000000000000249500000000000072842700000000000000009999123100000010000000000000BRHBREACNOR4101
012026032302HBSA3       010HIDROVIAS   ON      NM   R$  000000000037400000000003940000000000373000000000038800000000003940000000000393000000000039403278000000000001708800000000000664103100000000000000009999123100000010000000000000BRHBSAACNOR0102
012026032302LUPA3       010LUPATECH    ON      NM   R$  000000000008100000000000890000000000079000000000008500000000000870000000000085000000000008700139000000000000118000000000000010074900000000000000009999123100000010000000000000BRLUPAACNOR8112
012026032302LUXM4       010TREVISA     PN           R$  000000000040200000000004100000000000383000000000039700000000003930000000000393000000000040000008000000000000001800000000000000716000000000000000009999123100000010000000000000BRLUXMACNPR4053
012026032302LWSA3       010LWSA        ON      NM   R$  000000000036400000000003890000000000362000000000038100000000003840000000000384000000000038506778000000000004272200000000001631615200000000000000009999123100000010000000000000BRLWSAACNOR8106
012026032302MYPK3       010IOCHP-MAXIONON      NM   R$  000000000089400000000009310000000000894000000000092000000000009220000000000919000000000092202700000000000000949700000000000873902200000000000000009999123100000010000000000000BRMYPKACNOR7158
012026032302NATU3       010NATURA      ON      NM   R$  000000000095000000000009900000000000944000000000097000000000009900000000000990000000000099116051000000000008148100000000007910844700000000000000009999123100000010000000000000BRNATUACNOR6137
012026032302REDE3       010REDE ENERGIAON  ED       R$  000000000062000000000006250000000000617000000000062100000000006170000000000617000000000062400009000000000000001800000000000001119400000000000000009999123100000010000000000000BRREDEACNOR7135
012026032302RENT3       010LOCALIZA    ON      NM   R$  000000000450000000000047460000000004476000000000466300000000047040000000004703000000000471350800000000000014926300000000069602516300000000000000009999123100000010000000000000BRRENTACNOR4205
012026032302RENT4       010LOCALIZA    PN      NM   R$  000000000413000000000045140000000004130000000000441600000000045000000000004495000000000450003815000000000000760700000000003359422800000000000000009999123100000010000000000000BRRENTACNPR1100
012026032302SCAR3       010SAO CARLOS  ON      NM   R$  000000000133900000000014000000000001339000000000137600000000013870000000001371000000000138700181000000000000052100000000000071699200000000000000009999123100000010000000000000BRSCARACNOR7133
012026032302SEER3       010SER EDUCA   ON      NM   R$  000000000104700000000010930000000001038000000000106700000000010520000000001052000000000106105676000000000001332400000000001422492800000000000000009999123100000010000000000000BRSEERACNOR5120
012026032302SEQL3       010SEQUOIA LOG ON      NM   R$  000000000002800000000000290000000000025000000000002600000000000260000000000026000000000002701703000000000002249500000000000059864900000000000000009999123100000010000000000000BRSEQLACNOR2108
012026032302SHOW3       010TIME FOR FUNON      NM   R$  000000000050600000000005470000000000496000000000050700000000005010000000000501000000000050300358000000000000112200000000000056932900000000000000009999123100000010000000000000BRSHOWACNOR7106
012026032302SHUL4       010SCHULZ      PN           R$  000000000051700000000005270000000000516000000000052200000000005250000000000521000000000052500604000000000000491100000000000256594500000000000000009999123100000010000000000000BRSHULACNPR4163
012026032302SIMH3       010SIMPAR      ON      NM   R$  000000000108500000000011470000000001075000000000112000000000011250000000001124000000000112507664000000000004142100000000004642026500000000000000009999123100000010000000000000BRSIMHACNOR0111
012026032302SNSY5       010SANSUY      PNA          R$  000000000024500000000002470000000000233000000000023700000000002470000000000233000000000023900010000000000000001700000000000000403900000000000000009999123100000010000000000000BRSNSYACNPA5111
012026032302SOJA3       010BOA SAFRA   ON      NM   R$  000000000081600000000008240000000000787000000000080000000000008060000000000805000000000080902546000000000001781200000000001426684800000000000000009999123100000010000000000000BRSOJAACNOR9109
012026032302SOND6       010SONDOTECNICAPNB          R$  000000000513300000000051330000000005133000000000513300000000051330000000005123000000000550100002000000000000000300000000000001539900000000000000009999123100000010000000000000BRSONDACNPB6168
012026032302HAGA3       010HAGA S/A    ON           R$  000000000023100000000002400000000000231000000000023300000000002320000000000232000000000023900011000000000000002600000000000000606400000000000000009999123100000010000000000000BRHAGAACNOR7103
012026032302HAGA4       010HAGA S/A    PN           R$  000000000014700000000001510000000000145000000000014600000000001500000000000146000000000015000039000000000000017300000000000002540000000000000000009999123100000010000000000000BRHAGAACNPR4103
012026032302HAPV3       010HAPVIDA     ON  ATZ NM   R$  000000000095000000000009970000000000924000000000096200000000009440000000000944000000000094821579000000000013393300000000012887523700000000000000009999123100000010000000000000BRHAPVACNOR4120
012026032302KLBN11      010KLABIN S/A  UNT     N2   R$  000000000185600000000019100000000001845000000000188900000000018900000000001890000000000189310066000000000003845800000000007268156500000000000000009999123100000010000000000000BRKLBNCDAM18151
012026032302KLBN3       010KLABIN S/A  ON      N2   R$  000000000037300000000003830000000000370000000000037700000000003800000000000380000000000038300703000000000000460300000000000173776100000000000000009999123100000010000000000000BRKLBNACNOR2179
012026032302KLBN4       010KLABIN S/A  PN      N2   R$  000000000037300000000003820000000000369000000000037600000000003820000000000380000000000038202735000000000002163400000000000814211600000000000000009999123100000010000000000000BRKLBNACNPR9179
012026032302LAND3       010TERRASANTAPAON      NM   R$  000000000085700000000008970000000000857000000000087300000000008840000000000867000000000088400145000000000000019100000000000016691800000000000000009999123100000010000000000000BRLANDACNOR9104
012026032302LAVV3       010LAVVI       ON      NM   R$  000000000137500000000014490000000001375000000000143000000000014330000000001433000000000144403667000000000000987800000000001413540500000000000000009999123100000010000000000000BRLAVVACNOR4120
012026032302MRSA3B      010MRS LOGIST  ON      MB   R$  000000000430000000000043340000000004300000000000431700000000043340000000003300000000000459000002000000000000000200000000000000863400000000000000009999123100000010000000000000BRMRSAACNOR6126
012026032302MRSA6B      010MRS LOGIST  PNB     MB   R$  000000000449900000000044990000000004499000000000449900000000044990000000003300000000000000000001000000000000000100000000000000449900000000000000009999123100000010000000000000BRMRSAACNPB7126
012026032302MRVE3       010MRV         ON  ATZ NM   R$  000000000073900000000007780000000000739000000000076400000000007650000000000764000000000076512688000000000007979100000000006101704200000000000000009999123100000010000000000000BRMRVEACNOR2129
012026032302RANI3       010IRANI       ON      NM   R$  000000000090100000000009450000000000901000000000093200000000009430000000000936000000000094301734000000000000485800000000000453063200000000000000009999123100000010000000000000BRRANIACNOR5080
012026032302RAPT3       010RANDON PART ON      N1   R$  000000000049900000000005080000000000492000000000049500000000005010000000000501000000000050800092000000000000037300000000000018481900000000000000009999123100000010000000000000BRRAPTACNOR7166
012026032302RAPT4       010RANDON PART PN      N1   R$  000000000048000000000005040000000000476000000000049500000000005020000000000501000000000050208809000000000009819000000000004865769900000000000000009999123100000010000000000000BRRAPTACNPR4166
012026032302RCSL3       010RECRUSUL    ON           R$  000000000006900000000000770000000000069000000000007200000000000710000000000071000000000007200448000000000000461400000000000033394100000000000000009999123100000010000000000000BRRCSLACNOR4135
012026032302RCSL4       010RECRUSUL    PN           R$  000000000011900000000001300000000000118000000000012700000000001270000000000126000000000012703859000000000008089900000000001027736900000000000000009999123100000010000000000000BRRCSLACNPR1135
012026032302RDOR3       010REDE D OR   ON      NM   R$  000000000381400000000038960000000003795000000000385900000000038900000000003875000000000389023626000000000012920300000000049872239700000000000000009999123100000010000000000000BRRDORACNOR8119
012026032302SBFG3       010GRUPO SBF   ON      NM   R$  000000000112500000000011880000000001116000000000116500000000011700000000001169000000000117006937000000000002094700000000002440509900000000000000009999123100000010000000000000BRSBFGACNOR1104
012026032302SBSP3       010SABESP      ON  EJB NM   R$  000000001508900000000154780000000015088000000001532900000000152540000000015252000000001530017893000000000002844100000000043599219600000000000000009999123100000010000000000000BRSBSPACNOR5167
012026032302GOAU3       010GERDAU MET  ON      N1   R$  000000000078500000000008130000000000785000000000080000000000008110000000000808000000000081200140000000000000037400000000000029946900000000000000009999123100000010000000000000BRGOAUACNOR1275
012026032302GOAU4       010GERDAU MET  PN      N1   R$  000000000079900000000008220000000000795000000000081200000000008150000000000814000000000081508860000000000008200400000000006662623500000000000000009999123100000010000000000000BRGOAUACNPR8276
012026032302IFCM3       010INFRACOMM   ON      NM   R$  000000000007700000000000790000000000075000000000007700000000000780000000000077000000000007800142000000000000193800000000000014944400000000000000009999123100000010000000000000BRIFCMACNOR8109
012026032302IGTI11      010IGUATEMI S.AUNT     N1   R$  000000000264900000000027390000000002647000000000271400000000027390000000002732000000000274007815000000000002033500000000005519670600000000000000009999123100000010000000000000BRIGTICDAM16109
012026032302IGTI3       010IGUATEMI S.AON      N1   R$  000000000030300000000003140000000000303000000000030900000000003140000000000310000000000031400068000000000000036400000000000011277100000000000000009999123100000010000000000000BRIGTIACNOR8109
012026032302IGTI4       010IGUATEMI S.APN      N1   R$  000000000120400000000012040000000001204000000000120400000000012040000000001101000000000000000001000000000000000200000000000000240800000000000000009999123100000010000000000000BRIGTIACNPR5109
012026032302INEP3       010INEPAR      ON           R$  000000000012600000000001320000000000126000000000012800000000001280000000000127000000000012800042000000000000041300000000000005296700000000000000009999123100000010000000000000BRINEPACNOR1145
012026032302INEP4       010INEPAR      PN           R$  000000000012000000000001220000000000118000000000011800000000001200000000000117000000000012000016000000000000010600000000000001259100000000000000009999123100000010000000000000BRINEPACNPR8145
012026032302MILS3       010MILLS       ON      NM   R$  000000000133600000000013900000000001336000000000137800000000013840000000001384000000000138503077000000000000898100000000001237812700000000000000009999123100000010000000000000BRMILSACNOR2132
012026032302MLAS3       010MULTILASER  ON      NM   R$  000000000012300000000001290000000000123000000000012600000000001260000000000126000000000012800347000000000000550700000000000069449400000000000000009999123100000010000000000000BRMLASACNOR9102
012026032302MNDL3       010MUNDIAL     ON           R$  000000000165000000000017500000000001650000000000171000000000017500000000001580000000000190000011000000000000001500000000000002566300000000000000009999123100000010000000000000BRMNDLACNOR4109
012026032302MNPR3       010MINUPAR     ON           R$  000000000042300000000004330000000000415000000000042100000000004270000000000421000000000042700057000000000000015100000000000006359400000000000000009999123100000010000000000000BRMNPRACNOR5123
012026032302MOTV3       010MOTIVA SA   ON      NM   R$  000000000151300000000015670000000001506000000000154400000000015530000000001552000000000155316107000000000011664600000000018020497800000000000000009999123100000010000000000000BRMOTVACNOR7102
012026032302MOVI3       010MOVIDA      ON      NM   R$  000000000124000000000013170000000001229000000000128800000000013170000000001317000000000131814366000000000007769400000000010007631400000000000000009999123100000010000000000000BRMOVIACNOR0127
012026032302INTB3       010INTELBRAS   ON      NM   R$  000000000140200000000014720000000001402000000000144700000000014720000000001460000000000147306443000000000002121500000000003070024500000000000000009999123100000010000000000000BRINTBACNOR9115
012026032302IRBR3       010IRBBRASIL REON      NM   R$  000000000542300000000056010000000005421000000000554700000000055880000000005584000000000558803807000000000000625900000000003471941000000000000000009999123100000010000000000000BRIRBRACNOR4113
012026032302JHSF3       010JHSF PART   ON      NM   R$  000000000085300000000008900000000000845000000000087800000000008900000000000890000000000089106510000000000003312800000000002908893700000000000000009999123100000010000000000000BRJHSFACNOR2157
012026032302MDNE3       010MOURA DUBEUXON      NM   R$  000000000302200000000031730000000002953000000000311000000000031600000000003150000000000316106485000000000001104300000000003435187500000000000000009999123100000010000000000000BRMDNEACNOR9104
012026032302MEAL3       010IMC S/A     ON      NM   R$  000000000010100000000001040000000000101000000000010200000000001040000000000101000000000010400108000000000000271400000000000027732700000000000000009999123100000010000000000000BRMEALACNOR9105
012026032302MELK3       010MELNICK     ON      NM   R$  000000000035200000000003550000000000345000000000035100000000003520000000000352000000000035402004000000000000507700000000000178353900000000000000009999123100000010000000000000BRMELKACNOR8116
012026032302MGEL4       010MANGELS INDLPN           R$  000000000059700000000006050000000000597000000000060000000000006050000000000597000000000060300005000000000000000500000000000000300000000000000000009999123100000010000000000000BRMGELACNPR3147
012026032302MGLU3       010MAGAZ LUIZA ON      NM   R$  000000000085900000000008880000000000858000000000087500000000008760000000000875000000000087719368000000000020111900000000017608705200000000000000009999123100000010000000000000BRMGLUACNOR2130
012026032302OBTC3       010ORANJEBTC   ON           R$  000000000073800000000007680000000000719000000000074100000000007380000000000738000000000074601271000000000000235800000000000174947900000000000000009999123100000010000000000000BROBTCACNOR0100
012026032302ODPV3       010ODONTOPREV  ON      NM   R$  000000000135100000000013510000000001308000000000132600000000013300000000001326000000000133006904000000000003485500000000004624456000000000000000009999123100000010000000000000BRODPVACNOR4213
012026032302OFSA3       010OUROFINO S/AON      NM   R$  000000000273400000000027340000000002652000000000270500000000027070000000002655000000000273400011000000000000004100000000000011090900000000000000009999123100000010000000000000BROFSAACNOR7122
012026032302FLRY3       010FLEURY      ON      NM   R$  000000000153400000000015600000000001510000000000153900000000015560000000001555000000000155612321000000000003519300000000005419370500000000000000009999123100000010000000000000BRFLRYACNOR5143
012026032302FRAS3       010FRAS-LE     ON      N1   R$  000000000210600000000021900000000002105000000000216600000000021710000000002169000000000219001077000000000000380800000000000825040100000000000000009999123100000010000000000000BRFRASACNOR0163
012026032302BRBI11      010BR PARTNERS UNT     N2   R$  000000000185800000000018860000000001847000000000186500000000018670000000001852000000000186801496000000000000213300000000000397950500000000000000009999123100000010000000000000BRBRBICDAM10116
012026032302BRKM3       010BRASKEM     ON      N1   R$  000000000093200000000009540000000000870000000000091000000000009180000000000916000000000091800115000000000000023300000000000021206100000000000000009999123100000010000000000000BRBRKMACNOR1119
012026032302BRKM5       010BRASKEM     PNA     N1   R$  000000000103500000000010790000000000976000000000102600000000010630000000001061000000000106310931000000000005913400000000006070783400000000000000009999123100000010000000000000BRBRKMACNPA4123
012026032302CRPG5       010CRISTAL     PNA          R$  000000000178800000000017880000000001760000000000177200000000017800000000001751000000000178800004000000000000000400000000000000708800000000000000009999123100000010000000000000BRCRPGACNPA3119
012026032302CSAN3       010COSAN       ON      NM   R$  000000000052500000000005440000000000520000000000053600000000005350000000000534000000000053522255000000000033763100000000018120747900000000000000009999123100000010000000000000BRCSANACNOR6129
012026032302DMVF3       010D1000VFARMA ON      NM   R$  000000000065000000000006670000000000638000000000065300000000006640000000000657000000000066400419000000000000095300000000000062290700000000000000009999123100000010000000000000BRDMVFACNOR9100
012026032302DOHL4       010DOHLER      PN           R$  000000000034900000000003570000000000349000000000035500000000003550000000000350000000000035600004000000000000002100000000000000745900000000000000009999123100000010000000000000BRDOHLACNPR9067
012026032302DOTZ3       010DOTZ SA     ON      NM   R$  000000000029400000000003110000000000286000000000029400000000002960000000000296000000000029700076000000000000028500000000000008396900000000000000009999123100000010000000000000BRDOTZACNOR7101
012026032302DXCO3       010DEXCO       ON      NM   R$  000000000045000000000004740000000000450000000000046800000000004740000000000471000000000047404354000000000002544100000000001192004500000000000000009999123100000010000000000000BRDXCOACNOR8108
012026032302EALT3       010ACO ALTONA  ON           R$  000000000138800000000013880000000001387000000000138600000000013870000000001386000000000142000003000000000000000500000000000000693400000000000000009999123100000010000000000000BREALTACNOR4140
012026032302EALT4       010ACO ALTONA  PN           R$  000000000141700000000014180000000001397000000000140200000000014010000000001400000000000141600024000000000000006500000000000009118400000000000000009999123100000010000000000000BREALTACNPR1140
012026032302ECOR3       010ECORODOVIAS ON      NM   R$  000000000080700000000008430000000000807000000000082800000000008380000000000829000000000083916537000000000007997100000000006621799400000000000000009999123100000010000000000000BRECORACNOR8122
012026032302ETER3       010ETERNIT     ON      NM   R$  000000000037400000000003830000000000372000000000037800000000003790000000000379000000000038400239000000000000037500000000000014184000000000000000009999123100000010000000000000BRETERACNOR3246
012026032302EUCA4       010EUCATEX     PN      N1   R$  000000000207000000000020750000000001987000000000201500000000020000000000002000000000000200300291000000000000057500000000000115891400000000000000009999123100000010000000000000BREUCAACNPR8046
012026032302EVEN3       010EVEN        ON      NM   R$  000000000069400000000007290000000000693000000000072000000000007290000000000725000000000073002420000000000000757000000000000545795500000000000000009999123100000010000000000000BREVENACNOR8121
012026032302EZTC3       010EZTEC       ON      NM   R$  000000000134900000000014100000000001349000000000139200000000013860000000001386000000000138906012000000000001856600000000002586059300000000000000009999123100000010000000000000BREZTCACNOR0132
012026032302BLAU3       010BLAU        ON      NM   R$  000000000098600000000010080000000000978000000000099100000000010080000000001000000000000100901791000000000000233000000000000231093200000000000000009999123100000010000000000000BRBLAUACNOR8120
012026032302BMEB3       010MERCANTIL   ON      N1   R$  000000000660000000000069870000000006509000000000670300000000068190000000006600000000000690000073000000000000010800000000000072393100000000000000009999123100000010000000000000BRBMEBACNOR8211
012026032302BMEB4       010MERCANTIL   PN      N1   R$  000000000760000000000079000000000007600000000000774400000000077390000000007721000000000791900206000000000000026200000000000202902400000000000000009999123100000010000000000000BRBMEBACNPR5216
012026032302BMGB4       010BANCO BMG   PN      N1   R$  000000000048800000000005090000000000488000000000050100000000005070000000000507000000000050901487000000000001141400000000000572410500000000000000009999123100000010000000000000BRBMGBACNPR0118
012026032302BMKS3       010BIC MONARK  ON           R$  000000003875000000000387500000000038200000000003860600000000386000000000038100000000003860000011000000000000000018000000000000694911000000000000009999123100000010000000000000BRBMKSACNOR9169
012026032302BMOB3       010BEMOBI TECH ON      NM   R$  000000000240500000000024710000000002378000000000242700000000024540000000002448000000000245503403000000000000499700000000001213109700000000000000009999123100000010000000000000BRBMOBACNOR7107
012026032302BNBR3       010NORD BRASIL ON           R$  000000001220000000000123010000000012200000000001228600000000123000000000012001000000001250000005000000000000003000000000000036858000000000000000009999123100000010000000000000BRBNBRACNOR8211
012026032302CAMB3       010CAMBUCI     ON  EJ       R$  000000000092400000000009750000000000924000000000096300000000009720000000000967000000000097100066000000000000018500000000000017832600000000000000009999123100000010000000000000BRCAMBACNOR4137
012026032302ARML3       010ARMAC       ON      NM   R$  000000000045000000000005160000000000450000000000049700000000005160000000000512000000000051603047000000000001486200000000000738796400000000000000009999123100000010000000000000BRARMLACNOR1117
012026032302BALM4       010BAUMER      PN           R$  000000000191100000000019970000000001911000000000196700000000019870000000001952000000000200000009000000000000000900000000000001770500000000000000009999123100000010000000000000BRBALMACNPR2060
012026032302BAZA3       010AMAZONIA    ON           R$  000000000836600000000084500000000008332000000000838300000000083360000000008323000000000841200038000000000000006600000000000055331800000000000000009999123100000010000000000000BRBAZAACNOR0180
012026032302BBAS3       010BRASIL      ON      NM   R$  000000000235800000000024290000000002358000000000240500000000023960000000002396000000000239826417000000000023714600000000057040571000000000000000009999123100000010000000000000BRBBASACNOR3336
012026032302BBSE3       010BBSEGURIDADEON      NM   R$  000000000344600000000034810000000003442000000000346600000000034650000000003464000000000347111827000000000003790600000000013139961900000000000000009999123100000010000000000000BRBBSEACNOR5128
012026032302BRAP3       010BRADESPAR   ON      N1   R$  000000000189200000000019440000000001891000000000192400000000019200000000001920000000000194100227000000000000032300000000000062166500000000000000009999123100000010000000000000BRBRAPACNOR5153
012026032302BRAP4       010BRADESPAR   PN      N1   R$  000000000217200000000022260000000002160000000000220000000000022020000000002202000000000220305081000000000001669000000000003672047600000000000000009999123100000010000000000000BRBRAPACNPR2153
012026032302CMIN3       010CSNMINERACAOON      N2   R$  000000000048500000000004980000000000484000000000049000000000004890000000000488000000000049210302000000000011095700000000005445269200000000000000009999123100000010000000000000BRCMINACNOR2116
012026032302COCE5       010COELCE      PNA          R$  000000000313900000000031800000000003075000000000311900000000031020000000003101000000000316500045000000000000007000000000000021834300000000000000009999123100000010000000000000BRCOCEACNPA3150
012026032302COGN3       010COGNA ON    ON      NM   R$  000000000028800000000003040000000000286000000000029700000000002970000000000297000000000029815033000000000023155400000000006877879100000000000000009999123100000010000000000000BRCOGNACNOR2110
012026032302CVCB3       010CVC BRASIL  ON      NM   R$  000000000019900000000002160000000000199000000000020900000000002120000000000212000000000021308686000000000024673900000000005158247900000000000000009999123100000010000000000000BRCVCBACNOR1118
012026032302CXSE3       010CAIXA SEGURION      NM   R$  000000000175600000000017830000000001748000000000176700000000017730000000001765000000000177414480000000000005476700000000009681010300000000000000009999123100000010000000000000BRCXSEACNOR7114
012026032302ENEV3       010ENEVA       ON      NM   R$  000000000253300000000025740000000002486000000000252700000000025100000000002508000000000252429513000000000023277100000000058841037700000000000000009999123100000010000000000000BRENEVACNOR8107
012026032302ISAE3       010ISA ENERGIA ON  ED  N1   R$  000000000324900000000035000000000003206000000000342500000000035000000000003243000000000350000052000000000000011500000000000039397400000000000000009999123100000010000000000000BRISAEACNOR2110
012026032302ISAE4       010ISA ENERGIA PN  ED  N1   R$  000000000277500000000028580000000002767000000000283100000000028370000000002835000000000283808935000000000002087400000000005911351100000000000000009999123100000010000000000000BRISAEACNPR9110
012026032302CAML3       010CAMIL       ON      NM   R$  000000000055100000000005710000000000551000000000056200000000005710000000000570000000000057101797000000000000850100000000000478118400000000000000009999123100000010000000000000BRCAMLACNOR3135
012026032302CASH3       010MELIUZ      ON      NM   R$  000000000036000000000003890000000000352000000000036900000000003880000000000386000000000038802948000000000002968100000000001097785000000000000000009999123100000010000000000000BRCASHACNOR8107
012026032302CSNA3       010SID NACIONALON           R$  000000000061400000000006630000000000610000000000064800000000006540000000000653000000000065421566000000000020968700000000013591589200000000000000009999123100000010000000000000BRCSNAACNOR6264
012026032302EKTR3       010ELEKTRO     ON           R$  000000000500000000000050000000000005000000000000500000000000050000000000005000000000000000000002000000000000000300000000000001500000000000000000009999123100000010000000000000BREKTRACNOR0175
012026032302EKTR4       010ELEKTRO     PN           R$  000000000382200000000038220000000003700000000000376500000000037890000000003745000000000379000028000000000000004600000000000017320900000000000000009999123100000010000000000000BREKTRACNPR7175
012026032302EMAE4       010EMAE        PN           R$  000000000449800000000044980000000004249000000000434300000000042490000000004228000000000425000049000000000000015800000000000068630000000000000000009999123100000010000000000000BREMAEACNPR1128
012026032302EMBJ3       010EMBRAER     ON  ATZ NM   R$  000000000751300000000077980000000007401000000000767000000000077360000000007736000000000773734258000000000009060700000000069502225300000000000000009999123100000010000000000000BREMBJACNOR1103
012026032302BEES3       010BANESTES    ON           R$  000000000085000000000008700000000000849000000000085900000000008670000000000854000000000086800088000000000000024900000000000021396700000000000000009999123100000010000000000000BRBEESACNOR9416
012026032302ITSA3       010ITAUSA      ON  EJ  N1   R$  000000000132600000000013580000000001320000000000134500000000013510000000001351000000000135701000000000000000264000000000000355311900000000000000009999123100000010000000000000BRITSAACNOR0457
012026032302ITSA4       010ITAUSA      PN  EJ  N1   R$  000000000134000000000013670000000001335000000000135600000000013570000000001356000000000135725583000000000027139600000000036827159500000000000000009999123100000010000000000000BRITSAACNPR7457
012026032302LEVE3       010METAL LEVE  ON      NM   R$  000000000345900000000035600000000003459000000000352500000000035430000000003540000000000354301709000000000000266700000000000940247700000000000000009999123100000010000000000000BRLEVEACNOR2202
012026032302LJQQ3       010QUERO-QUERO ON      NM   R$  000000000018600000000002050000000000186000000000019600000000002050000000000204000000000020502717000000000004672500000000000918628700000000000000009999123100000010000000000000BRLJQQACNOR5105
012026032302LOGG3       010LOG COM PROPON      NM   R$  000000000265500000000027710000000002637000000000273900000000027500000000002748000000000276002122000000000000320000000000000876744300000000000000009999123100000010000000000000BRLOGGACNOR7112
012026032302LOGN3       010LOG-IN      ON      NM   R$  000000000320300000000032030000000003114000000000315000000000031620000000003127000000000316300099000000000000029100000000000091679100000000000000009999123100000010000000000000BRLOGNACNOR3105
012026032302LPSB3       010LOPES BRASILON      NM   R$  000000000016100000000001760000000000161000000000016900000000001690000000000169000000000017300228000000000000148500000000000025178100000000000000009999123100000010000000000000BRLPSBACNOR0116
012026032302LREN3       010LOJAS RENNERON      NM   R$  000000000151800000000015720000000001516000000000155100000000015660000000001565000000000156627011000000000022781900000000035339807600000000000000009999123100000010000000000000BRLRENACNOR1228
012026032302MTRE3       010MITRE REALTYON  ED  NM   R$  000000000037700000000003810000000000368000000000037700000000003760000000000376000000000037901009000000000000623000000000000235036200000000000000009999123100000010000000000000BRMTREACNOR6132
012026032302MTSA4       010METISA      PN           R$  000000000616000000000062930000000006160000000000624200000000062930000000004500000000000629500007000000000000000800000000000004993900000000000000009999123100000010000000000000BRMTSAACNPR9079
012026032302MULT3       010MULTIPLAN   ON      N2   R$  000000000302400000000031550000000003024000000000312300000000031490000000003139000000000314918282000000000003973300000000012409604800000000000000009999123100000010000000000000BRMULTACNOR5145
012026032302RECV3       010PETRORECSA  ON      NM   R$  000000000124500000000013190000000001236000000000129100000000013080000000001307000000000130807898000000000003841800000000004962046900000000000000009999123100000010000000000000BRRECVACNOR3110
012026032302GOLL54      010GOL         PN *P        R$  000000000115800000000011580000000001153000000000115300000000011540000000001153000000000115400151000000000006402000000000000007382221000000000000009999123100010000000000000000BRGOLLA01PR5100
012026032302GRND3       010GRENDENE    ON      NM   R$  000000000046400000000004770000000000462000000000047200000000004700000000000470000000000047206467000000000004571900000000002158183900000000000000009999123100000010000000000000BRGRNDACNOR3182
012026032302GSHP3       010GENERALSHOPPON           R$  000000000029400000000002950000000000294000000000029400000000002950000000000295000000000030000002000000000000000200000000000000058900000000000000009999123100000010000000000000BRGSHPACNOR7102
012026032302BPAC11      010BTGP BANCO  UNT     N2   R$  000000000542000000000056450000000005420000000000554100000000055230000000005522000000000552339620000000000012812700000000071002087800000000000000009999123100000010000000000000BRBPACUNT006128
012026032302BPAC3       010BTGP BANCO  ON      N2   R$  000000000360400000000037170000000003604000000000366400000000036500000000003559000000000369200058000000000000008200000000000030049200000000000000009999123100000010000000000000BRBPACACNOR7139
012026032302BPAC5       010BTGP BANCO  PNA     N2   R$  000000000110000000000011420000000001100000000000112800000000011170000000001117000000000113400044000000000000011700000000000013207500000000000000009999123100000010000000000000BRBPACACNPA0139
012026032302BRSR3       010BANRISUL    ON  EJ  N1   R$  000000000184400000000019000000000001844000000000187200000000018770000000001866000000000193000061000000000000010400000000000019478600000000000000009999123100000010000000000000BRBRSRACNOR3198
012026032302BRSR6       010BANRISUL    PNB EJ  N1   R$  000000000168900000000017610000000001689000000000174100000000017410000000001740000000000174804375000000000001348300000000002348469800000000000000009999123100000010000000000000BRBRSRACNPB4201
012026032302BRST3       010BRISANET    ON      NM   R$  000000000027700000000002880000000000276000000000028300000000002840000000000283000000000028700974000000000000621300000000000176007000000000000000009999123100000010000000000000BRBRSTACNOR9102
012026032302BSLI3       010BRB BANCO   ON           R$  000000000045000000000004530000000000438000000000044300000000004470000000000445000000000044700059000000000000019300000000000008562800000000000000009999123100000010000000000000BRBSLIACNOR5198
012026032302BSLI4       010BRB BANCO   PN           R$  000000000042000000000004280000000000410000000000041600000000004170000000000414000000000042200054000000000000031500000000000013118700000000000000009999123100000010000000000000BRBSLIACNPR2198
012026032302CEAB3       010CEA MODAS   ON      NM   R$  000000000115600000000012000000000001149000000000117800000000011900000000001187000000000119015201000000000006284000000000007407914700000000000000009999123100000010000000000000BRCEABACNOR1105
012026032302CEBR3       010CEB         ON           R$  000000000310000000000031590000000003100000000000313300000000031590000000003101000000000316000024000000000000003300000000000010339600000000000000009999123100000010000000000000BRCEBRACNOR5129
012026032302CEBR5       010CEB         PNA          R$  000000000284000000000028690000000002806000000000284300000000028690000000002820000000000286700005000000000000000600000000000001705800000000000000009999123100000010000000000000BRCEBRACNPA8128
012026032302CEBR6       010CEB         PNB          R$  000000000310000000000031090000000003098000000000310000000000030980000000003080000000000309700006000000000000001700000000000005270800000000000000009999123100000010000000000000BRCEBRACNPB6128
012026032302CEDO3       010CEDRO       ON      N1   R$  000000000098500000000009850000000000985000000000098500000000009850000000000975000000000100000001000000000000000100000000000000098500000000000000009999123100000010000000000000BRCEDOACNOR8096
012026032302CEDO4       010CEDRO       PN      N1   R$  000000000079000000000008000000000000790000000000079500000000008000000000000727000000000080000002000000000000000200000000000000159000000000000000009999123100000010000000000000BRCEDOACNPR5128
012026032302AZEV3       010AZEVEDO     ON           R$  000000000002200000000000240000000000020000000000002100000000000210000000000021000000000002200478000000000003888000000000000085521900000000000000009999123100000010000000000000BRAZEVACNOR0123
012026032302AZEV4       010AZEVEDO     PN           R$  000000000001700000000000180000000000016000000000001700000000000170000000000017000000000001800384000000000005230900000000000090001900000000000000009999123100000010000000000000BRAZEVACNPR7123
012026032302AZTE3       010AZT ENERGIA ON           R$  000000000002400000000000260000000000023000000000002400000000000250000000000024000000000002500372000000000003388700000000000083361800000000000000009999123100000010000000000000BRAZTEACNOR4101
012026032302AZUL53      010AZUL        ON  P   N2   R$  000000001634000000000173990000000016010000000001670000000000170000000000017000000000001700500890000000008719000000000000000145828538000000000000009999123110000000000000000000BRAZULA01OR8102
012026032302AZZA3       010AZZAS 2154  ON      NM   R$  000000000272400000000028040000000002718000000000277100000000027580000000002757000000000275913167000000000003024400000000008383168400000000000000009999123100000010000000000000BRAZZAACNOR9104
012026032302BBDC3       010BRADESCO    ON      N1   R$  000000000161500000000016690000000001615000000000164600000000016440000000001644000000000164910115000000000007387000000000012164469600000000000000009999123100000010000000000000BRBBDCACNOR1798
012026032302BBDC4       010BRADESCO    PN      N1   R$  000000000187500000000019280000000001875000000000190300000000019000000000001899000000000190031928000000000030955400000000058908996100000000000000009999123100000010000000000000BRBBDCACNPR8798
012026032302BIOM3       010BIOMM       ON           R$  000000000074300000000007570000000000717000000000074300000000007440000000000740000000000074400177000000000000077500000000000057659600000000000000009999123100000010000000000000BRBIOMACNOR2113
012026032302CEEB3       010COELBA      ON           R$  000000000476900000000047690000000004740000000000474700000000047400000000004741000000000480000004000000000000000400000000000001898900000000000000009999123100000010000000000000BRCEEBACNOR3208
012026032302CGAS3       010COMGAS      ON           R$  000000001260200000000126020000000012600000000001260100000000126000000000012600000000001310000002000000000000000200000000000002520200000000000000009999123100000010000000000000BRCGASACNOR0168
012026032302CGAS5       010COMGAS      PNA          R$  000000001326500000000132650000000013265000000001326500000000132650000000013201000000001329900001000000000000000100000000000001326500000000000000009999123100000010000000000000BRCGASACNPA3165
012026032302CGRA3       010GRAZZIOTIN  ON           R$  000000000269900000000026990000000002672000000000268900000000026720000000002650000000000269000010000000000000001100000000000002958300000000000000009999123100000010000000000000BRCGRAACNOR2088
012026032302CGRA4       010GRAZZIOTIN  PN           R$  000000000272900000000027290000000002675000000000268100000000026760000000002676000000000271600045000000000000008100000000000021723600000000000000009999123100000010000000000000BRCGRAACNPR9088
012026032302CLSC3       010CELESC      ON      N2   R$  000000001280000000000129000000000012800000000001288000000000129000000000012513000000001300000003000000000000000500000000000006440000000000000000009999123100000010000000000000BRCLSCACNOR6159
012026032302AGRO3       010BRASILAGRO  ON      NM   R$  000000000210100000000021180000000002070000000000209400000000020860000000002085000000000208602294000000000000326500000000000683916500000000000000009999123100000010000000000000BRAGROACNOR7116
012026032302ALLD3       010ALLIED      ON      NM   R$  000000000073200000000007480000000000728000000000074100000000007470000000000745000000000074700869000000000000224100000000000166185000000000000000009999123100000010000000000000BRALLDACNOR3110
012026032302AALR3       010ALLIAR      ON      NM   R$  000000000036800000000003980000000000367000000000038100000000003980000000000393000000000039800145000000000000040200000000000015319600000000000000009999123100000010000000000000BRAALRACNOR6104
012026032302ABCB4       010ABC BRASIL  PN      N2   R$  000000000253000000000026180000000002530000000000258400000000025670000000002567000000000257303714000000000000859700000000002221517700000000000000009999123100000010000000000000BRABCBACNPR4150
012026032302ABEV3       010AMBEV S/A   ON           R$  000000000146800000000014830000000001453000000000147100000000014660000000001465000000000147218227000000000023231600000000034195152800000000000000009999123100000010000000000000BRABEVACNOR1134
012026032302JSLG3       010JSL         ON      NM   R$  000000000058800000000006660000000000586000000000064400000000006580000000000656000000000065803659000000000001875500000000001209410000000000000000009999123100000010000000000000BRJSLGACNOR2123
012026032302KEPL3       010KEPLER WEBERON      NM   R$  000000000079100000000008160000000000788000000000080700000000008140000000000810000000000081405231000000000002656900000000002144173900000000000000009999123100000010000000000000BRKEPLACNOR1069
012026032302B3SA3       010B3          ON      NM   R$  000000000167700000000017430000000001666000000000171300000000017260000000001725000000000172655177000000000038247900000000065537338100000000000000009999123100000010000000000000BRB3SAACNOR6140
012026032302CBAV3       010CBA         ON      NM   R$  000000000103100000000010400000000001026000000000103300000000010310000000001031000000000103404268000000000002629900000000002716844600000000000000009999123100000010000000000000BRCBAVACNOR5104
012026032302POSI3       010POSITIVO TECON      NM   R$  000000000042100000000004300000000000414000000000042100000000004200000000000420000000000042502738000000000001690000000000000712369000000000000000009999123100000010000000000000BRPOSIACNOR9118
012026032302PRIO3       010PETRORIO    ON      NM   R$  000000000640000000000067070000000006305000000000658000000000065960000000006596000000000659857759000000000021043200000000138482002400000000000000009999123100000010000000000000BRPRIOACNOR1112
012026032302RAIL3       010RUMO S.A.   ON      NM   R$  000000000164300000000016920000000001640000000000167800000000016850000000001685000000000168820051000000000008506300000000014280432300000000000000009999123100000010000000000000BRRAILACNOR9106
012026032302UNIP3       010UNIPAR      ON           R$  000000000601000000000061000000000005950000000000605100000000060010000000006000000000000602000074000000000000014400000000000087136600000000000000009999123100000010000000000000BRUNIPACNOR7210
012026032302UNIP6       010UNIPAR      PNB          R$  000000000587000000000061600000000005867000000000606700000000060470000000006047000000000605001869000000000000305700000000001854987300000000000000009999123100000010000000000000BRUNIPACNPB8210
012026032302USIM3       010USIMINAS    ON      N1   R$  000000000063300000000006700000000000633000000000065400000000006640000000000658000000000066401344000000000000609400000000000398791300000000000000009999123100000010000000000000BRUSIMACNOR3167
012026032302USIM5       010USIMINAS    PNA     N1   R$  000000000064600000000006710000000000642000000000066100000000006600000000000660000000000066411285000000000010892200000000007210329100000000000000009999123100000010000000000000BRUSIMACNPA6172
012026032302GEPA4       010GER PARANAP PN           R$  000000000350000000000035990000000003500000000000354900000000035990000000003533000000000358900002000000000000000200000000000000709900000000000000009999123100000010000000000000BRGEPAACNPR9165
012026032302GFSA3       010GAFISA      ON      NM   R$  000000000017800000000001850000000000178000000000018100000000001830000000000183000000000018400837000000000000750400000000000136359500000000000000009999123100000010000000000000BRGFSAACNOR3127
012026032302GGBR3       010GERDAU      ON      N1   R$  000000000163000000000016400000000001604000000000162800000000016400000000001623000000000164000186000000000000027600000000000044953100000000000000009999123100000010000000000000BRGGBRACNOR1199
012026032302GGBR4       010GERDAU      PN      N1   R$  000000000178400000000018270000000001769000000000180500000000018000000000001799000000000180020576000000000014630100000000026414924200000000000000009999123100000010000000000000BRGGBRACNPR8199
012026032302GGPS3       010GPS         ON      NM   R$  000000000162700000000016930000000001624000000000166700000000016780000000001670000000000167909809000000000003567100000000005948394900000000000000009999123100000010000000000000BRGGPSACNOR9106
012026032302ALOS3       010ALLOS       ON      NM   R$  000000000293200000000030150000000002931000000000298300000000029890000000002988000000000299514647000000000004581700000000013667368800000000000000009999123100000010000000000000BRALOSACNOR5119
012026032302ALPA3       010ALPARGATAS  ON      N1   R$  000000000116600000000012090000000001137000000000117500000000012080000000001139000000000120800044000000000000012900000000000015163700000000000000009999123100000010000000000000BRALPAACNOR0234
012026032302ALPA4       010ALPARGATAS  PN      N1   R$  000000000118600000000012620000000001184000000000124600000000012440000000001243000000000124808834000000000003213900000000004006595400000000000000009999123100000010000000000000BRALPAACNPR7235
012026032302CLSC4       010CELESC      PN      N2   R$  000000001466700000000146670000000014545000000001460200000000146100000000014571000000001468000015000000000000001600000000000023363200000000000000009999123100000010000000000000BRCLSCACNPR3138
012026032302CMIG3       010CEMIG       ON      N1   R$  000000000161300000000016680000000001610000000000164500000000016470000000001647000000000166001563000000000000261800000000000430909800000000000000009999123100000010000000000000BRCMIGACNOR6251
012026032302CMIG4       010CEMIG       PN      N1   R$  000000000124100000000012570000000001234000000000124700000000012460000000001245000000000124616276000000000012560000000000015673978600000000000000009999123100000010000000000000BRCMIGACNPR3252
012026032302CSUD3       010CSU DIGITAL ON      NM   R$  000000000177400000000017980000000001771000000000178300000000017710000000001771000000000180000239000000000000037700000000000067249500000000000000009999123100000010000000000000BRCSUDACNOR5117
012026032302CTKA4       010KARSTEN     PN           R$  000000000419700000000043000000000004197000000000422400000000043000000000004120000000000430000004000000000000000400000000000001689700000000000000009999123100000010000000000000BRCTKAACNPR7043
012026032302TAEE11      010TAESA       UNT     N2   R$  000000000412400000000042600000000004113000000000422300000000042460000000004246000000000424908932000000000001855500000000007835957500000000000000009999123100000010000000000000BRTAEECDAM10153
012026032302TAEE3       010TAESA       ON      N2   R$  000000000135000000000014000000000001350000000000138500000000013900000000001390000000000139700464000000000000070500000000000097645200000000000000009999123100000010000000000000BRTAEEACNOR9153
012026032302TAEE4       010TAESA       PN      N2   R$  000000000138500000000014340000000001383000000000141600000000014300000000001422000000000143000862000000000000192100000000000272196000000000000000009999123100000010000000000000BRTAEEACNPR6153
012026032302VSTE3       010VESTE       ON      NM   R$  000000000035000000000003520000000000350000000000035100000000003520000000000350000000000035200030000000000000078600000000000027600500000000000000009999123100000010000000000000BRVSTEACNOR5104
012026032302VTRU3       010VITRUEDUCA  ON      NM   R$  000000000145600000000015450000000001438000000000151200000000015190000000001515000000000151902651000000000000414300000000000626602600000000000000009999123100000010000000000000BRVTRUACNOR3101
012026032302VULC3       010VULCABRAS   ON      NM   R$  000000000165000000000017040000000001637000000000167900000000016890000000001689000000000169404541000000000001370000000000002300911800000000000000009999123100000010000000000000BRVULCACNOR2181
012026032302VVEO3       010VIVEO       ON      NM   R$  000000000012200000000001290000000000117000000000012400000000001260000000000125000000000012601354000000000002166800000000000269151900000000000000009999123100000010000000000000BRVVEOACNOR0104
012026032302CURY3       010CURY S/A    ON      NM   R$  000000000338000000000035470000000003380000000000350100000000035150000000003515000000000352214504000000000002649900000000009279898400000000000000009999123100000010000000000000BRCURYACNOR3116
012026032302AERI3       010AERIS       ON      NM   R$  000000000025200000000002570000000000250000000000025300000000002540000000000252000000000025400146000000000000098000000000000024835100000000000000009999123100000010000000000000BRAERIACNOR4102
012026032302PDGR3       010PDG REALT   ON      NM   R$  000000000012200000000001260000000000116000000000012200000000001250000000000124000000000012600075000000000000036000000000000004401600000000000000009999123100000010000000000000BRPDGRACNOR8123
012026032302PDTC3       010PADTEC      ON      NM   R$  000000000015400000000001590000000000154000000000015500000000001580000000000156000000000015800046000000000000045400000000000007062200000000000000009999123100000010000000000000BRPDTCACNOR3101
012026032302PEAB3       010PAR AL BAHIAON           R$  000000000390000000000039000000000003900000000000390000000000039000000000003815000000000420000008000000000000002300000000000008970000000000000000009999123100000010000000000000BRPEABACNOR3138
012026032302PETR3       010PETROBRAS   ON      N2   R$  000000000488100000000050930000000004881000000000503400000000050680000000005068000000000507040213000000000027956200000000140732874600000000000000009999123100000010000000000000BRPETRACNOR9212
012026032302PETR4       010PETROBRAS   PN      N2   R$  000000000444200000000046180000000004432000000000456900000000046030000000004602000000000460381015000000000065252400000000298183171500000000000000009999123100000010000000000000BRPETRACNPR6224
012026032302PTBL3       010PORTOBELLO  ON      NM   R$  000000000030400000000003170000000000304000000000031200000000003150000000000315000000000031600414000000000000141200000000000044116800000000000000009999123100000010000000000000BRPTBLACNOR8132
012026032302PTNT4       010PETTENATI   PN           R$  000000000085600000000008600000000000856000000000085800000000008600000000000856000000000086700005000000000000002600000000000002233300000000000000009999123100000010000000000000BRPTNTACNPR3049
012026032302FESA4       010FERBASA     PN      N1   R$  000000000072700000000007640000000000720000000000074400000000007640000000000760000000000076403339000000000001784500000000001328135200000000000000009999123100000010000000000000BRFESAACNPR5090
012026032302AURE3       010AUREN       ON      NM   R$  000000000114600000000011900000000001140000000000117800000000011830000000001181000000000118307094000000000002081000000000002451813100000000000000009999123100000010000000000000BRAUREACNOR9105
012026032302AVLL3       010ALPHAVILLE  ON      NM   R$  000000000006600000000000670000000000066000000000006600000000000660000000000066000000000006700005000000000000005400000000000000357400000000000000009999123100000010000000000000BRAVLLACNOR5103
012026032302AXIA3       010AXIA ENERGIAON      N1   R$  000000000570000000000058900000000005684000000000582400000000058270000000005822000000000583332811000000000010280300000000059874736600000000000000009999123100000010000000000000BRAXIAACNOR0103
012026032302AXIA6       010AXIA ENERGIAPNB     N1   R$  000000000625000000000064270000000006206000000000635700000000063520000000006352000000000636409097000000000002199000000000013979453500000000000000009999123100000010000000000000BRAXIAACNPB1103
012026032302AXIA7       010AXIA ENERGIAPNC     N1   R$  000000000550000000000056860000000005474000000000561800000000056500000000005650000000000565510859000000000002105300000000011828256400000000000000009999123100000010000000000000BRAXIAACNPC9100
012026032302BEEF3       010MINERVA     ON      NM   R$  000000000037400000000003990000000000370000000000038700000000003960000000000395000000000039717817000000000030951800000000011996734900000000000000009999123100000010000000000000BRBEEFACNOR6120
012026032302CPFE3       010CPFL ENERGIAON      NM   R$  000000000460400000000047180000000004576000000000468800000000047150000000004686000000000471708624000000000001442800000000006764614900000000000000009999123100000010000000000000BRCPFEACNOR0138
012026032302CPLE3       010COPEL       ON      NM   R$  000000000151000000000015520000000001503000000000153900000000015360000000001536000000000153823931000000000017227100000000026529072800000000000000009999123100000010000000000000BRCPLEACNOR8153
012026032302DASA3       010DASA        ON      NM   R$  000000000031700000000003640000000000316000000000034600000000003640000000000364000000000036502067000000000001801300000000000624315500000000000000009999123100000010000000000000BRDASAACNOR1123
012026032302DESK3       010DESKTOP     ON      NM   R$  000000000178100000000018250000000001761000000000178300000000017750000000001775000000000177711847000000000009025800000000016098530900000000000000009999123100000010000000000000BRDESKACNOR2106
012026032302DEXP3       010DEXXOS PAR  ON      N1   R$  000000000071200000000007200000000000704000000000071100000000007170000000000717000000000072000933000000000000153100000000000108982100000000000000009999123100000010000000000000BRDEXPACNOR1109
012026032302DEXP4       010DEXXOS PAR  PN      N1   R$  000000000071000000000007180000000000710000000000071600000000007180000000000703000000000071900007000000000000006300000000000004513800000000000000009999123100000010000000000000BRDEXPACNPR8109
012026032302DIRR3       010DIRECIONAL  ON      NM   R$  000000000137500000000014260000000001359000000000140800000000014090000000001407000000000141010054000000000003712600000000005229161800000000000000009999123100000010000000000000BRDIRRACNOR0123
012026032302ASAI3       010ASSAI       ON      NM   R$  000000000076100000000008150000000000753000000000079400000000008020000000000802000000000080417274000000000017850300000000014178035700000000000000009999123100000010000000000000BRASAIACNOR0109
012026032302ATED3       010ATOM EDUC   ON           R$  000000000022400000000002300000000000224000000000022900000000002300000000000225000000000023100004000000000000006800000000000001558800000000000000009999123100000010000000000000BRATEDACNOR1100
012026032302AUAU3       010PETZCOBASI  ON      NM   R$  000000000028600000000003030000000000286000000000029800000000002990000000000299000000000030003010000000000003574100000000001066679800000000000000009999123100000010000000000000BRAUAUACNOR1100
012026032302BRAV3       010BRAVA       ON      NM   R$  000000000167200000000017590000000001644000000000171600000000017500000000001745000000000175116999000000000008185600000000014050999000000000000000009999123100000010000000000000BRBRAVACNOR3104
012026032302CYRE3       010CYRELA REALTON      NM   R$  000000000256400000000027220000000002564000000000267800000000027220000000002715000000000272332416000000000007374700000000019753457200000000000000009999123100000010000000000000BRCYREACNOR7143
012026032302CYRE4       010CYRELA REALTPN      NM   R$  000000000240000000000025520000000002399000000000251200000000025460000000002546000000000255005681000000000001472000000000003698784200000000000000009999123100000010000000000000BRCYREACNPR4114
012026032302ALPK3       010ESTAPAR     ON      NM   R$  000000000043900000000004560000000000439000000000044700000000004470000000000447000000000045600382000000000000102700000000000045962700000000000000009999123100000010000000000000BRALPKACNOR9101
012026032302ALUP11      010ALUPAR      UNT     N2   R$  000000000337500000000034680000000003353000000000343100000000034620000000003437000000000346503061000000000000645300000000002214374600000000000000009999123100000010000000000000BRALUPCDAM15126
012026032302ALUP3       010ALUPAR      ON      N2   R$  000000000123400000000012920000000001216000000000126800000000012900000000001258000000000129500046000000000000005800000000000007358900000000000000009999123100000010000000000000BRALUPACNOR8126
012026032302ALUP4       010ALUPAR      PN      N2   R$  000000000104700000000010880000000001047000000000107500000000010880000000001074000000000108800068000000000000010400000000000011190300000000000000009999123100000010000000000000BRALUPACNPR5126
012026032302AMAR3       010LOJAS MARISAON      NM   R$  000000000008300000000000870000000000083000000000008500000000000850000000000085000000000008700242000000000000136700000000000011699900000000000000009999123100000010000000000000BRAMARACNOR4115
012026032302AMOB3       010AUTOMOB     ON      NM   R$  000000000114800000000012290000000001109000000000118700000000012030000000001201000000000120500261000000000000037900000000000045020500000000000000009999123100000010000000000000BRAMOBACNOR9101
012026032302ANIM3       010ANIMA       ON      NM   R$  000000000039300000000004320000000000392000000000041600000000004110000000000411000000000041509169000000000011427500000000004755068800000000000000009999123100000010000000000000BRANIMACNOR6110
012026032307PCAR3       010P.ACUCAR-CBDON      NM   R$  000000000019900000000002220000000000199000000000021100000000002160000000000215000000000021602809000000000006890100000000001459961600000000000000009999123100000010000000000000BRPCARACNOR3170
012026032307MWET4       010WETZEL S/A  PN           R$  000000000228900000000024000000000002060000000000209100000000023160000000001922000000000226000014000000000000008000000000000016730600000000000000009999123100000010000000000000BRMWETACNPR3118
012026032307RAIZ4       010RAIZEN      PN      N2   R$  000000000005500000000000610000000000055000000000005700000000000560000000000056000000000005707070000000000040682000000000002340824300000000000000009999123100000010000000000000BRRAIZACNPR6112
012026032308OIBR3       010OI          ON      N1   R$  000000000001700000000000170000000000017000000000001700000000000170000000000017000000000001800132000000000000624800000000000010621600000000000000009999123100000010000000000000BROIBRACNOR1112
012026032308OIBR4       010OI          PN      N1   R$  000000000014900000000001490000000000149000000000014900000000001490000000000132000000000015000009000000000000001000000000000000149000000000000000009999123100000010000000000000BROIBRACNPR8111
012026032308OSXB3       010OSX BRASIL  ON      NM   R$  000000000017100000000001710000000000171000000000017100000000001710000000000162000000000017100005000000000000002300000000000000393300000000000000009999123100000010000000000000BROSXBACNOR8109
012026032308RPMG3       010PET MANGUINHON           R$  000000000022400000000002240000000000213000000000021800000000002180000000000216000000000021900012000000000000002000000000000000436200000000000000009999123100000010000000000000BRRPMGACNOR9194
012026032308RSID3       010ROSSI RESID ON      NM   R$  000000000017600000000001760000000000176000000000017600000000001760000000000150000000000017600010000000000000001400000000000000246400000000000000009999123100000010000000000000BRRSIDACNOR8121
012026032308PMAM3       010PARANAPANEMAON      NM   R$  000000000005200000000000570000000000051000000000005300000000000550000000000055000000000005600508000000000001718500000000000092796300000000000000009999123100000010000000000000BRPMAMACNOR3046
012026032308FICT3       010FICTORALIMENON           R$  000000000004700000000000480000000000046000000000004700000000000470000000000046000000000004700031000000000000041400000000000001963900000000000000009999123100000010000000000000BRFICTACNOR3101
012026032308NEXP3       010NEXPE       ON           R$  000000000027500000000002800000000000275000000000027800000000002800000000000276000000000028100007000000000000001700000000000000474000000000000000009999123100000010000000000000BRNEXPACNOR0101
012026032308HOOT4       010HOTEIS OTHONPN           R$  000000000065100000000006800000000000650000000000065700000000006800000000000651000000000068500006000000000000000800000000000000526100000000000000009999123100000010000000000000BRHOOTACNPR9015
012026032308JFEN3       010JOAO FORTES ON           R$  000000000007900000000000800000000000079000000000007900000000000790000000000077000000000007900006000000000000003700000000000000292500000000000000009999123100000010000000000000BRJFENACNOR0061
012026032308BOBR4       010BOMBRIL     PN           R$  000000000013000000000001300000000000130000000000013000000000001300000000000123000000000013000006000000000000001300000000000000169000000000000000009999123100000010000000000000BRBOBRACNPR3128
012026032308LIGT3       010LIGHT S/A   ON      NM   R$  000000000045000000000004740000000000439000000000046200000000004710000000000467000000000047103677000000000001328200000000000614223600000000000000009999123100000010000000000000BRLIGTACNOR2125
012026032308AGXY3       010AGROGALAXY  ON      NM   R$  000000000022200000000002300000000000219000000000022500000000002250000000000220000000000022500099000000000000010300000000000002321400000000000000009999123100000010000000000000BRAGXYACNOR4104
012026032308CTAX3       010CONTAX      ON           R$  000000000007400000000000750000000000074000000000007400000000000750000000000075000000000007900008000000000000010600000000000000785200000000000000009999123100000010000000000000BRCTAXACNOR3119
012026032308CTSA3       010SANTANENSE  ON           R$  000000000021500000000002150000000000215000000000021500000000002150000000000210000000000037900002000000000000000700000000000000150500000000000000009999123100000010000000000000BRCTSAACNOR3063
012026032308CTSA4       010SANTANENSE  PN           R$  000000000018100000000001810000000000181000000000018100000000001810000000000180000000000018500001000000000000000500000000000000090500000000000000009999123100000010000000000000BRCTSAACNPR0063
012026032308BDLL3       010BARDELLA    ON           R$  000000000070100000000007010000000000701000000000070100000000007010000000000702000000000088700001000000000000000100000000000000070100000000000000009999123100000010000000000000BRBDLLACNOR1149
012026032308AMBP3       010AMBIPAR     ON      NM   R$  000000000002000000000000220000000000020000000000002100000000000210000000000021000000000002200681000000000004672800000000000099368600000000000000009999123100000010000000000000BRAMBPACNOR6105
012026032308AMER3       010AMERICANAS  ON      NM   R$  000000000050100000000005160000000000500000000000051100000000005160000000000513000000000051601425000000000001831400000000000936605200000000000000009999123100000010000000000000BRAMERACNOR6103
012026032310HYPE9       010HYPERA      ON  REC NM   R$  000000000226500000000023450000000002261000000000230600000000023170000000002289000000000233401534000000000000439600000000001013902600000000000000009999123100000010000000000000BRHYPER01OR5149
012026032310VAMO1       010VAMOS       DIR ORD NM   R$  000000000001200000000000190000000000007000000000001100000000000190000000000017000000000001901590000000000003362700000000000039974800000000000000009999123100000010000000000000BRVAMOD01OR2109
012026032310PINE10      010PINE        PN  REC N2   R$  000000000118500000000012200000000001185000000000120900000000012200000000001160000000000122100047000000000000044200000000000053452700000000000000009999123100000010000000000000BRPINER10PR4160
012026032310BGIP10      010BANESE      PN  REC      R$  000000000345000000000034500000000003450000000000345000000000034500000000003401000000000370000001000000000000000200000000000000690000000000000000009999123100000010000000000000BRBGIPR10PR4214
012026032310SIMH1       010SIMPAR      DIR ORD NM   R$  000000000002600000000000360000000000026000000000003100000000000310000000000030000000000003101487000000000000822100000000000025627500000000000000009999123100000010000000000000BRSIMHD01OR5110
012026032310SNAG12      010FIAGRO SUNO DIR          R$  000000000000400000000000040000000000003000000000000300000000000040000000000003000000000000401075000000000001126699000000000004185407000000000000009999123100000010000000000000BRSNAGD04M10146
012026032310MOVI1       010MOVIDA      DIR ORD NM   R$  000000000010000000000001800000000000096000000000012600000000001800000000000180000000000020001186000000000000721100000000000091554900000000000000009999123100000010000000000000BRMOVID02OR3126
012026032310BMGB10      010BANCO BMG   PN  REC N1   R$  000000000047800000000005070000000000478000000000049300000000005070000000000492000000000050600087000000000000015900000000000007850800000000000000009999123100000010000000000000BRBMGBR03PR1117
012026032310ABCB10      010ABC BRASIL  PN  REC N2   R$  000000000258000000000025800000000002543000000000255200000000025520000000002524000000000258000014000000000000002100000000000005360900000000000000009999123100000010000000000000BRABCBR20PR9149
012026032312ONDA11      010FII ONDA ME CI  ER       R$  000000000090900000000009210000000000870000000000087900000000008990000000000870000000000089900024000000000000001043000000000000917317000000000000009999123100000010000000000000BRONDACTF006103
012026032312OUJP11      010FII OURI JPPCI           R$  000000000859000000000085900000000008493000000000852800000000085550000000008510000000000855500673000000000000004997000000000042616361000000000000009999123100000010000000000000BROUJPCTF006208
012026032312PABY11      010FII PANAMBY CI           R$  000000000427500000000042750000000004260000000000427300000000042600000000001685000000000425000005000000000000000013000000000000055560000000000000009999123100000010000000000000BRPABYCTF012158
012026032312PATA11      010FII PATA    CI           R$  000000000094300000000009430000000000919000000000092500000000009200000000000917000000000097400014000000000000000186000000000000172121000000000000009999123100000010000000000000BRPATACTF006119
012026032312PATC11      010FII PATC VBICI           R$  000000000384000000000038400000000003807000000000382700000000038400000000003839000000000384000021000000000000000604000000000002311928000000000000009999123100000010000000000000BRPATCCTF002191
012026032312PATL11      010FII PATL VBICI           R$  000000000674500000000067450000000006690000000000670400000000066980000000006698000000000670001573000000000000016200000000000108613084000000000000009999123100000010000000000000BRPATLCTF003167
012026032312PRSV11      010FII P VARGASCI           R$  000000000379200000000037920000000003402000000000364600000000034020000000003400000000000379600004000000000000000011000000000000040110000000000000009999123100000010000000000000BRPRSVCTF008227
012026032312PSEC11      010FII PSEC PAXCI           R$  000000000624000000000062400000000006178000000000620000000000062070000000006186000000000620704621000000000000068525000000000424872581000000000000009999123100000010000000000000BRPSECCTF006105
012026032312RENV11      010FII RENV    CI           R$  000000000070000000000007050000000000688000000000069900000000007000000000000685000000000070000039000000000000000359000000000000251181000000000000009999123100000010000000000000BRRENVCTF003113
012026032312RINV11      010FII REAL INVCI  ER       R$  000000001093800000000109380000000010856000000001087200000000108560000000010855000000001085600135000000000000003084000000000033531498000000000000009999123100000010000000000000BRRINVCTF004142
012026032312RJDA11      010FII RJDA    CI           R$  000000001150000000000115000000000011500000000001150000000000115000000000011500000000000000000003000000000000000003000000000000034500000000000000009999123100000010000000000000BRRJDACTF007100
012026032312RMBS11      010FII RMBS    CI           R$  000000000091000000000009100000000000826000000000089700000000008850000000000885000000000088700016000000000000000625000000000000561106000000000000009999123100000010000000000000BRRMBSCTF007103
012026032312RNGO11      010FII RIONEGROCI           R$  000000000519900000000051990000000005112000000000512600000000051370000000005112000000000515000048000000000000002490000000000012765864000000000000009999123100000010000000000000BRRNGOCTF003264
012026032312EQIR11      010FII EQI RECECI  ER       R$  000000000085900000000008620000000000858000000000085900000000008580000000000858000000000085900233000000000000013155000000000011302787000000000000009999123100000010000000000000BREQIRCTF003154
012026032312IBBP11      010FII IBBP    CI           R$  000000000081300000000008190000000000805000000000081400000000008180000000000806000000000081800030000000000000000521000000000000424487000000000000009999123100000010000000000000BRIBBPCTF005116
012026032312IBCR11      010FII BREI    CI           R$  000000000522200000000052570000000005099000000000514200000000051080000000005108000000000518000202000000000000003005000000000015454085000000000000009999123100000010000000000000BRIBCRCTF009158
012026032312MAGM11      010FII MAGM    CI  ER       R$  000000000100000000000010000000000001000000000000100000000000010000000000000995000000000100000001000000000000000001000000000000001000000000000000009999123100000010000000000000BRMAGMCTF005106
012026032312MANA11      010FII MANATI  CI           R$  000000000092200000000009260000000000919000000000092200000000009260000000000922000000000092608512000000000000171542000000000158262025000000000000009999123100000010000000000000BRMANACTF006146
012026032312MAXR11      010FII MAX RET CI           R$  000000000621400000000063370000000006190000000000620500000000061900000000006190000000000620000456000000000000001698000000000010537204000000000000009999123100000010000000000000BRMAXRCTF009289
012026032312NAVT11      010FII NAVI TOTCI  ER       R$  000000000772200000000077590000000007657000000000771900000000077210000000007720000000000775900033000000000000000334000000000002578359000000000000009999123100000010000000000000BRNAVTCTF015160
012026032312NCRI11      010FII NAVI CRICI           R$  000000000089400000000009140000000000890000000000089700000000008900000000000878000000000090400065000000000000002290000000000002055097000000000000009999123100000010000000000000BRNCRICTF004139
012026032312NEWL11      010FII NEWPORT CI           R$  000000001120000000000112270000000011160000000001117000000000111600000000011160000000001118500420000000000000002621000000000029277323000000000000009999123100000010000000000000BRNEWLCTF004176
012026032312NEWU11      010FII NEWRU   CI           R$  000000001036800000000104510000000010368000000001040900000000104510000000009965000000001045200002000000000000000002000000000000020819000000000000009999123100000010000000000000BRNEWUCTF005143
012026032312WPLZ11      010FII W PLAZA CI           R$  000000000495100000000049510000000004950000000000495000000000049500000000004950000000000502000003000000000000000019000000000000094057000000000000009999123100000010000000000000BRWPLZCTF004288
012026032312WTSP11      010FII WTC SP  CI  ER       R$  000000000640000000000064000000000006400000000000640000000000064000000000005500000000000700000001000000000000000002000000000000012800000000000000009999123100000010000000000000BRWTSPCTF002185
012026032312XLPR11      010FII XLPR RI CI           R$  000000000707300000000075000000000007000000000000721000000000075000000000007078000000000765000048000000000000000763000000000005501739000000000000009999123100000010000000000000BRXLPRCTF009103
012026032312GLOG11      010FII PLURAL LCI           R$  000000000690200000000073200000000006902000000000704600000000073200000000007041000000000732000033000000000000001310000000000009230974000000000000009999123100000010000000000000BRGLOGCTF000134
012026032312SPXS11      010FII SPX SYN CI           R$  000000000084600000000008470000000000837000000000084300000000008470000000000845000000000084704772000000000000096054000000000081014379000000000000009999123100000010000000000000BRSPXSCTF002145
012026032312VCJR11      010FII VECTIS  CI           R$  000000000812800000000081280000000007978000000000806400000000080010000000008001000000000802504084000000000000020714000000000167049551000000000000009999123100000010000000000000BRVCJRCTF005176
012026032312VCRI11      010FII VINCI CRCI           R$  000000000074900000000007610000000000742000000000074900000000007450000000000745000000000074800324000000000000046845000000000035091487000000000000009999123100000010000000000000BRVCRICTF007147
012026032312VCRR11      010FII VECT RENCI           R$  000000000627500000000064020000000006275000000000639000000000064000000000006400000000000640301161000000000000013903000000000088851088000000000000009999123100000010000000000000BRVCRRCTF008157
012026032312VGHF11      010FII VALOR HECI           R$  000000000070400000000007050000000000701000000000070300000000007010000000000701000000000070208204000000000000340854000000000239716014000000000000009999123100000010000000000000BRVGHFCTF005165
012026032312VGIP11      010FII VALORAIPCI  ER       R$  000000000794900000000079490000000007877000000000789900000000079180000000007890000000000791804207000000000000040212000000000317645936000000000000009999123100000010000000000000BRVGIPCTF002177
012026032312VGIR11      010FII VALREIIICI  ER       R$  000000000096900000000009750000000000967000000000097100000000009740000000000972000000000097408493000000000000390745000000000379601223000000000000009999123100000010000000000000BRVGIRCTF008199
012026032312VGRI11      010FII VGRI    CI           R$  000000000083600000000008360000000000830000000000083300000000008360000000000831000000000083601999000000000000061532000000000051274134000000000000009999123100000010000000000000BRVGRICTF008125
012026032312VILG11      010FII VINCI LGCI           R$  000000000990500000000099900000000009895000000000993900000000099010000000009901000000000992003579000000000000033835000000000336311151000000000000009999123100000010000000000000BRVILGCTF001192
012026032312VINO11      010FII VINCI OFCI           R$  000000000050000000000005070000000000494000000000050000000000005060000000000506000000000050701982000000000000147182000000000073685126000000000000009999123100000010000000000000BRVINOCTF001178
012026032312VISC11      010FII VINCI SCCI           R$  000000001098200000000109830000000010929000000001096300000000109660000000010966000000001097207700000000000000059884000000000656524872000000000000009999123100000010000000000000BRVISCCTF005207
012026032312VIUR11      010FII VINCI IUCI           R$  000000000055700000000005580000000000553000000000055600000000005560000000000555000000000055600818000000000000090997000000000050610684000000000000009999123100000010000000000000BRVIURCTF009157
012026032312SMRE11      010FII SMRE    CI           R$  000000000651300000000065230000000006500000000000650900000000065020000000006502000000000654501473000000000000002164000000000014085495000000000000009999123100000010000000000000BRSMRECTF001124
012026032312TRBL11      010FII SDI LOG CI           R$  000000000775800000000078510000000007750000000000780400000000077960000000007795000000000780006296000000000000031499000000000245846047000000000000009999123100000010000000000000BRTRBLCTF007133
012026032312TRNT11      010FII TORRE NOCI           R$  000000001050000000000105000000000010500000000001050000000000105000000000010500000000001100000003000000000000000014000000000000147000000000000000009999123100000010000000000000BRTRNTCTF013341
012026032312TRUE11      010FII TRUEMULTCI           R$  000000000259000000000026110000000002550000000000259500000000025500000000002459000000000260000037000000000000001795000000000004658680000000000000009999123100000010000000000000BRTRUECTF002100
