00COTAHIST.2026BOVESPA 20260107                                                                                                                                                                                                                      
012026010702BHIA3       010CASAS BAHIA ON      NM   R$  000000000030800000000003090000000000300000000000030200000000003010000000000300000000000030102799000000000004193900000000001270548800000000000000009999123100000010000000000000BRBHIAACNOR1104
012026010702BPAC11      010BTGP BANCO  UNT EJ  N2   R$  000000000539100000000054250000000005253000000000532400000000053250000000005321000000000532716411000000000004471400000000023810134300000000000000009999123100000010000000000000BRBPACUNT006128
012026010702BPAC3       010BTGP BANCO  ON  EJ  N2   R$  000000000407400000000041090000000003810000000000392300000000038540000000003854000000000389900099000000000000010700000000000041977100000000000000009999123100000010000000000000BRBPACACNOR7139
012026010702BPAC5       010BTGP BANCO  PNA EJ  N2   R$  000000000112000000000011210000000001076000000000109400000000010760000000001075000000000107900100000000000000014600000000000015972600000000000000009999123100000010000000000000BRBPACACNPA0139
012026010702BRBI11      010BR PARTNERS UNT     N2   R$  000000000201500000000020370000000001955000000000197500000000019740000000001972000000000197401569000000000000240900000000000475884500000000000000009999123100000010000000000000BRBRBICDAM10116
012026010702BRKM3       010BRASKEM     ON      N1   R$  000000000081400000000008140000000000791000000000080400000000008000000000000800000000000081500043000000000000008200000000000006596000000000000000009999123100000010000000000000BRBRKMACNOR1119
012026010702BRKM5       010BRASKEM     PNA     N1   R$  000000000079700000000007990000000000761000000000077600000000007760000000000775000000000077605512000000000002530700000000001964490100000000000000009999123100000010000000000000BRBRKMACNPA4122
012026010702DASA3       010DASA        ON      NM   R$  000000000039800000000004090000000000388000000000039900000000004050000000000402000000000040502596000000000001523300000000000608967700000000000000009999123100000010000000000000BRDASAACNOR1123
012026010702DESK3       010DESKTOP     ON      NM   R$  000000000171400000000017140000000001690000000000170000000000016970000000001690000000000169704566000000000001051800000000001788418100000000000000009999123100000010000000000000BRDESKACNOR2106
012026010702DEXP3       010DEXXOS PAR  ON      N1   R$  000000000080000000000008000000000000775000000000078600000000007940000000000788000000000079400607000000000000084300000000000066304800000000000000009999123100000010000000000000BRDEXPACNOR1109
012026010702DEXP4       010DEXXOS PAR  PN      N1   R$  000000000078600000000007860000000000780000000000078200000000007800000000000780000000000079100004000000000000000500000000000000391400000000000000009999123100000010000000000000BRDEXPACNPR8109
012026010702DIRR3       010DIRECIONAL  ON      NM   R$  000000000140500000000014060000000001355000000000139200000000013650000000001365000000000136915560000000000017733700000000024688933300000000000000009999123100000010000000000000BRDIRRACNOR0123
012026010702DMVF3       010D1000VFARMA ON      NM   R$  000000000065900000000006890000000000648000000000066000000000006600000000000658000000000066000234000000000000042900000000000028326600000000000000009999123100000010000000000000BRDMVFACNOR9100
012026010702DOHL4       010DOHLER      PN           R$  000000000036500000000003680000000000364000000000036500000000003640000000000363000000000036700019000000000000005400000000000001972800000000000000009999123100000010000000000000BRDOHLACNPR9067
012026010702ESPA3       010ESPACOLASER ON  ED  NM   R$  000000000010100000000001010000000000099000000000009900000000001000000000000099000000000010100079000000000001665400000000000166496100000000000000009999123100000010000000000000BRESPAACNOR7105
012026010702ETER3       010ETERNIT     ON      NM   R$  000000000040400000000004060000000000403000000000040400000000004060000000000404000000000040600179000000000000053500000000000021644700000000000000009999123100000010000000000000BRETERACNOR3246
012026010702EUCA3       010EUCATEX     ON  EJ  N1   R$  000000000210400000000021040000000002041000000000205500000000020420000000002042000000000210300012000000000000001900000000000003904900000000000000009999123100000010000000000000BREUCAACNOR1159
012026010702EUCA4       010EUCATEX     PN  EJ  N1   R$  000000000183100000000018590000000001800000000000183000000000018280000000001810000000000182800185000000000000033800000000000061858300000000000000009999123100000010000000000000BREUCAACNPR8046
012026010702EVEN3       010EVEN        ON      NM   R$  000000000075900000000007600000000000742000000000074900000000007490000000000743000000000075001959000000000000503800000000000377788500000000000000009999123100000010000000000000BREVENACNOR8121
012026010702EZTC3       010EZTEC       ON      NM   R$  000000000141400000000014140000000001371000000000138700000000013990000000001388000000000140006983000000000001650500000000002290387900000000000000009999123100000010000000000000BREZTCACNOR0132
012026010702FESA3       010FERBASA     ON      N1   R$  000000000112800000000012330000000001125000000000117100000000012330000000001136000000000121700014000000000000001900000000000002225400000000000000009999123100000010000000000000BRFESAACNOR8194
012026010702FESA4       010FERBASA     PN      N1   R$  000000000068800000000006880000000000676000000000067800000000006790000000000679000000000068001849000000000000627400000000000425916300000000000000009999123100000010000000000000BRFESAACNPR5090
012026010702FHER3       010FER HERINGERON      NM   R$  000000000042900000000004290000000000375000000000038900000000003810000000000381000000000038400467000000000000061500000000000023956700000000000000009999123100000010000000000000BRFHERACNOR5103
012026010702FICT3       010FICTORALIMENON           R$  000000000020400000000002040000000000198000000000020000000000001980000000000197000000000020100020000000000000002900000000000000580300000000000000009999123100000010000000000000BRFICTACNOR3101
012026010702ALPA3       010ALPARGATAS  ON      N1   R$  000000000107000000000010700000000001030000000000103700000000010300000000001029000000000103400018000000000000002200000000000002281400000000000000009999123100000010000000000000BRALPAACNOR0234
012026010702ALPA4       010ALPARGATAS  PN      N1   R$  000000000123600000000012410000000001214000000000123400000000012290000000001227000000000122906454000000000011187500000000013813609600000000000000009999123100000010000000000000BRALPAACNPR7235
012026010702ALPK3       010ESTAPAR     ON      NM   R$  000000000047700000000004820000000000456000000000046700000000004560000000000455000000000045600245000000000000080200000000000037494800000000000000009999123100000010000000000000BRALPKACNOR9101
012026010702ALUP11      010ALUPAR      UNT ED  N2   R$  000000000324300000000032490000000003158000000000318200000000031580000000003156000000000317502367000000000000371700000000001183095500000000000000009999123100000010000000000000BRALUPCDAM15126
012026010702BEEF3       010MINERVA     ON      NM   R$  000000000052100000000005210000000000507000000000051300000000005160000000000515000000000051719036000000000010978700000000005640429900000000000000009999123100000010000000000000BRBEEFACNOR6120
012026010702CYRE3       010CYRELA REALTON  EB  NM   R$  000000000250700000000025070000000002409000000000244200000000024220000000002420000000000242822853000000000007967500000000019459534500000000000000009999123100000010000000000000BRCYREACNOR7143
012026010702CYRE4       010CYRELA REALTPN      NM   R$  000000000238500000000024220000000002271000000000232800000000022850000000002285000000000230008408000000000002794800000000006506562100000000000000009999123100000010000000000000BRCYREACNPR4114
012026010702ENJU3       010ENJOEI      ON      NM   R$  000000000010400000000001040000000000102000000000010200000000001020000000000101000000000010200522000000000000368600000000000037745900000000000000009999123100000010000000000000BRENJUACNOR9100
012026010702ENMT3       010ENERGISA MT ON           R$  000000000491600000000049210000000004916000000000491700000000049210000000004920000000000519600003000000000000000300000000000001475300000000000000009999123100000010000000000000BRENMTACNOR5125
012026010702EPAR3       010EMBPAR S/A  ON           R$  000000000040400000000004040000000000401000000000040300000000004010000000000400000000000040300017000000000000005500000000000002217700000000000000009999123100000010000000000000BREPARACNOR9107
012026010702EQMA3B      010EQTLMARANHAOON      MB   R$  000000000309900000000030990000000003099000000000309900000000030990000000003005000000000314900001000000000000000100000000000000309900000000000000009999123100000010000000000000BREQMAACNOR8109
012026010702EQPA3       010EQTL PARA   ON           R$  000000000062100000000006430000000000612000000000062400000000006120000000000620000000000062500017000000000000002500000000000001561500000000000000009999123100000010000000000000BREQPAACNOR1112
012026010702AUAU3       010PETZCOBASI  ON      NM   R$  000000000038700000000003890000000000371000000000038000000000003790000000000379000000000038005941000000000003987600000000001518929200000000000000009999123100000010000000000000BRAUAUACNOR1100
012026010702BIED3       010BIOMA EDUC  ON      MA   R$  000000000042500000000004400000000000393000000000043100000000004390000000000401000000000043900020000000000000009300000000000004009500000000000000009999123100000010000000000000BRBIEDACNOR2101
012026010702EQTL3       010EQUATORIAL  ON  EJ  NM   R$  000000000389000000000038990000000003817000000000384500000000038250000000003820000000000382515580000000000004184200000000016092185800000000000000009999123100000010000000000000BREQTLACNOR0135
012026010702HBOR3       010HELBOR      ON  ED  NM   R$  000000000024700000000002470000000000239000000000024200000000002420000000000242000000000024501855000000000000931600000000000226122800000000000000009999123100000010000000000000BRHBORACNOR3120
012026010702HBRE3       010HBR REALTY  ON  ED  NM   R$  000000000035800000000003730000000000358000000000036500000000003660000000000366000000000037000288000000000000376000000000000137349200000000000000009999123100000010000000000000BRHBREACNOR4101
012026010702HBSA3       010HIDROVIAS   ON      NM   R$  000000000039200000000003920000000000373000000000038000000000003830000000000379000000000038304685000000000002075500000000000790469500000000000000009999123100000010000000000000BRHBSAACNOR0102
012026010702HBTS5       010HABITASUL   PNA          R$  000000000316000000000031600000000003160000000000316000000000031600000000003140000000000325000001000000000000000100000000000000316000000000000000009999123100000010000000000000BRHBTSACNPA3129
012026010702BNBR3       010NORD BRASIL ON           R$  000000001155000000000116000000000011500000000001159200000000116000000000011500000000001167500008000000000000002500000000000028980000000000000000009999123100000010000000000000BRBNBRACNOR8211
012026010702BRSR3       010BANRISUL    ON  EJ  N1   R$  000000000176100000000017720000000001725000000000174600000000017700000000001738000000000177000067000000000000007600000000000013271100000000000000009999123100000010000000000000BRBRSRACNOR3197
012026010702BRSR6       010BANRISUL    PNB EJ  N1   R$  000000000162200000000016270000000001583000000000160900000000016220000000001621000000000162208205000000000001853500000000002982542500000000000000009999123100000010000000000000BRBRSRACNPB4200
012026010702CPFE3       010CPFL ENERGIAON      NM   R$  000000000532900000000053560000000005234000000000529000000000052380000000005235000000000526906272000000000001195200000000006323581600000000000000009999123100000010000000000000BRCPFEACNOR0138
012026010702CPLE3       010COPEL       ON  EDJ NM   R$  000000000124400000000012440000000001203000000000121300000000012120000000001211000000000121626506000000000018721900000000022721936600000000000000009999123100000010000000000000BRCPLEACNOR8153
012026010702CRPG5       010CRISTAL     PNA          R$  000000000193500000000019350000000001860000000000189700000000018980000000001661000000000189900014000000000000002700000000000005124100000000000000009999123100000010000000000000BRCRPGACNPA3119
012026010702CRPG6       010CRISTAL     PNB          R$  000000000184800000000018740000000001848000000000186100000000018740000000001781000000000187400002000000000000000200000000000000372200000000000000009999123100000010000000000000BRCRPGACNPB1119
012026010702CSAN3       010COSAN       ON      NM   R$  000000000052200000000005220000000000508000000000051200000000005100000000000510000000000051120808000000000026631800000000013658355300000000000000009999123100000010000000000000BRCSANACNOR6128
012026010702DOTZ3       010DOTZ SA     ON      NM   R$  000000000045100000000004510000000000433000000000044000000000004350000000000434000000000043500052000000000000012400000000000005456800000000000000009999123100000010000000000000BRDOTZACNOR7101
012026010702DXCO3       010DEXCO       ON  EB  NM   R$  000000000053000000000005320000000000517000000000052300000000005270000000000521000000000052703543000000000002343900000000001227631800000000000000009999123100000010000000000000BRDXCOACNOR8108
012026010702ITSA3       010ITAUSA      ON      N1   R$  000000000123700000000012370000000001205000000000121600000000012120000000001212000000000121800751000000000000227000000000000276119200000000000000009999123100000010000000000000BRITSAACNOR0455
012026010702ITSA4       010ITAUSA      PN      N1   R$  000000000119100000000011960000000001171000000000117800000000011770000000001176000000000117819396000000000019658100000000023162369100000000000000009999123100000010000000000000BRITSAACNPR7455
012026010702EALT3       010ACO ALTONA  ON           R$  000000000139300000000014150000000001393000000000141000000000014150000000001415000000000142500006000000000000001500000000000002116200000000000000009999123100000010000000000000BREALTACNOR4140
012026010702EALT4       010ACO ALTONA  PN           R$  000000000141800000000014180000000001365000000000138300000000014000000000001400000000000141300409000000000000064600000000000089349600000000000000009999123100000010000000000000BREALTACNPR1140
012026010702ECOR3       010ECORODOVIAS ON      NM   R$  000000000110200000000011100000000001089000000000109400000000010900000000001089000000000109407501000000000004094400000000004482129400000000000000009999123100000010000000000000BRECORACNOR8122
012026010702LAND3       010TERRASANTAPAON      NM   R$  000000000084000000000008590000000000835000000000084400000000008590000000000842000000000085900101000000000000013900000000000011744900000000000000009999123100000010000000000000BRLANDACNOR9104
012026010702LAVV3       010LAVVI       ON      NM   R$  000000000161700000000016450000000001596000000000163000000000016450000000001642000000000164502977000000000000827500000000001348972800000000000000009999123100000010000000000000BRLAVVACNOR4119
012026010702LEVE3       010METAL LEVE  ON      NM   R$  000000000337500000000033790000000003316000000000333800000000033580000000003349000000000335801996000000000000293600000000000980097300000000000000009999123100000010000000000000BRLEVEACNOR2202
012026010702LJQQ3       010QUERO-QUERO ON      NM   R$  000000000022000000000002210000000000217000000000021800000000002190000000000218000000000022002447000000000001020100000000000222967800000000000000009999123100000010000000000000BRLJQQACNOR5105
012026010702EGIE3       010ENGIE BRASILON      NM   R$  000000000313700000000031530000000003087000000000310100000000030900000000003090000000000309606381000000000001353600000000004197987600000000000000009999123100000010000000000000BREGIEACNOR9132
012026010702ALUP3       010ALUPAR      ON  ED  N2   R$  000000000121600000000012160000000001180000000000119000000000011800000000001180000000000119500042000000000000004600000000000005474100000000000000009999123100000010000000000000BRALUPACNOR8126
012026010702ALUP4       010ALUPAR      PN  ED  N2   R$  000000000103000000000010300000000000990000000000100300000000009900000000000990000000000100300086000000000000012200000000000012239600000000000000009999123100000010000000000000BRALUPACNPR5126
012026010702AMAR3       010LOJAS MARISAON      NM   R$  000000000010200000000001030000000000100000000000010100000000001010000000000101000000000010200256000000000000202600000000000020588400000000000000009999123100000010000000000000BRAMARACNOR4115
012026010702AMOB3       010AUTOMOB     ON      NM   R$  000000000137700000000013890000000001328000000000136000000000013800000000001350000000000138000222000000000000028500000000000038787700000000000000009999123100000010000000000000BRAMOBACNOR9101
012026010702ANIM3       010ANIMA       ON      NM   R$  000000000037700000000004070000000000362000000000038900000000004020000000000402000000000040315149000000000026830200000000010462718900000000000000009999123100000010000000000000BRANIMACNOR6110
012026010702LOGG3       010LOG COM PROPON      NM   R$  000000000256300000000026040000000002525000000000258100000000026040000000002597000000000260602517000000000000318400000000000822046900000000000000009999123100000010000000000000BRLOGGACNOR7112
012026010702LOGN3       010LOG-IN      ON      NM   R$  000000000340400000000034040000000003301000000000333200000000033250000000003325000000000333000112000000000000037400000000000124622900000000000000009999123100000010000000000000BRLOGNACNOR3105
012026010702LPSB3       010LOPES BRASILON      NM   R$  000000000017400000000001750000000000167000000000016900000000001690000000000169000000000017002319000000000000255800000000000043275500000000000000009999123100000010000000000000BRLPSBACNOR0116
012026010702LREN3       010LOJAS RENNERON      NM   R$  000000000133800000000013480000000001301000000000131100000000013130000000001310000000000131426305000000000015016900000000019701286300000000000000009999123100000010000000000000BRLRENACNOR1228
012026010702MTRE3       010MITRE REALTYON  ED  NM   R$  000000000037300000000003730000000000368000000000036900000000003700000000000370000000000037100540000000000000232200000000000085838100000000000000009999123100000010000000000000BRMTREACNOR6130
012026010702MTSA4       010METISA      PN           R$  000000000480000000000048000000000004750000000000476200000000047500000000003901000000000475000015000000000000001600000000000007620300000000000000009999123100000010000000000000BRMTSAACNPR9079
012026010702MULT3       010MULTIPLAN   ON  EJ  N2   R$  000000000276700000000027800000000002730000000000274800000000027300000000002730000000000274512385000000000003086700000000008483428300000000000000009999123100000010000000000000BRMULTACNOR5145
012026010702ARML3       010ARMAC       ON      NM   R$  000000000047000000000004750000000000460000000000046600000000004660000000000461000000000046701635000000000000708400000000000330127100000000000000009999123100000010000000000000BRARMLACNOR1116
012026010702BEES3       010BANESTES    ON  EJ       R$  000000000081500000000008250000000000804000000000081700000000008160000000000815000000000081700072000000000000015000000000000012263800000000000000009999123100000010000000000000BRBEESACNOR9414
012026010702BEES4       010BANESTES    PN  EJ       R$  000000000081800000000008250000000000815000000000082000000000008250000000000820000000000082500028000000000000005600000000000004597300000000000000009999123100000010000000000000BRBEESACNPR6339
012026010702RECV3       010PETRORECSA  ON      NM   R$  000000000110900000000011120000000001078000000000109300000000011000000000001099000000000110110126000000000006328600000000006918635600000000000000009999123100000010000000000000BRRECVACNOR3109
012026010702REDE3       010REDE ENERGIAON           R$  000000000062100000000006240000000000620000000000062100000000006230000000000623000000000062400006000000000000000600000000000000373100000000000000009999123100000010000000000000BRREDEACNOR7134
012026010702RENT3       010LOCALIZA    ON  EB  NM   R$  000000000440900000000044400000000004320000000000437300000000043960000000004395000000000439827409000000000008703900000000038065129200000000000000009999123100000010000000000000BRRENTACNOR4205
012026010702RENT4       010LOCALIZA    PN      NM   R$  000000000421000000000042980000000004161000000000422500000000042310000000004231000000000426903616000000000001077000000000004550332000000000000000009999123100000010000000000000BRRENTACNPR1100
012026010702SMFT3       010SMART FIT   ON      NM   R$  000000000234000000000023410000000002256000000000228700000000023130000000002300000000000231415962000000000004956900000000011339315500000000000000009999123100000010000000000000BRSMFTACNOR1118
012026010702SMTO3       010SAO MARTINHOON      NM   R$  000000000144000000000014460000000001409000000000142100000000014210000000001420000000000142410149000000000003099200000000004405006100000000000000009999123100000010000000000000BRSMTOACNOR3129
012026010702BGIP3       010BANESE      ON           R$  000000000399300000000039930000000003993000000000399300000000039930000000003993000000000430000001000000000000000100000000000000399300000000000000009999123100000010000000000000BRBGIPACNOR1213
012026010702BGIP4       010BANESE      PN           R$  000000000337700000000034390000000003377000000000339700000000034390000000003435000000000350900003000000000000000300000000000001019300000000000000009999123100000010000000000000BRBGIPACNPR8213
012026010702MOAR3       010MONT ARANHA ON           R$  000000000629900000000062990000000006200000000000627400000000062970000000006201000000000629700015000000000000002500000000000015687100000000000000009999123100000010000000000000BRMOARACNOR5242
012026010702MOTV3       010MOTIVA SA   ON      NM   R$  000000000154700000000015470000000001527000000000153600000000015350000000001530000000000153611696000000000008163400000000012541622100000000000000009999123100000010000000000000BRMOTVACNOR7102
012026010702MOVI3       010MOVIDA      ON      NM   R$  000000000103000000000010300000000000945000000000096900000000009800000000000977000000000098011622000000000005798500000000005620641400000000000000009999123100000010000000000000BRMOVIACNOR0126
012026010702RAIZ4       010RAIZEN      PN      N2   R$  000000000008100000000000840000000000081000000000008200000000000830000000000082000000000008313068000000000027254100000000002241383800000000000000009999123100000010000000000000BRRAIZACNPR6112
012026010702RANI3       010IRANI       ON      NM   R$  000000000088200000000008820000000000872000000000087600000000008730000000000873000000000087501293000000000000298900000000000261891200000000000000009999123100000010000000000000BRRANIACNOR5079
012026010702SLCE3       010SLC AGRICOLAON  EB  NM   R$  000000000146600000000014740000000001431000000000144100000000014360000000001436000000000144307188000000000002198900000000003169411400000000000000009999123100000010000000000000BRSLCEACNOR2128
012026010702UNIP3       010UNIPAR      ON           R$  000000000608400000000060840000000005939000000000602000000000059390000000005906000000000600000066000000000000009000000000000054185200000000000000009999123100000010000000000000BRUNIPACNOR7210
012026010702UNIP6       010UNIPAR      PNB          R$  000000000611800000000061410000000006004000000000604900000000060040000000006001000000000602501442000000000000246500000000001491150000000000000000009999123100000010000000000000BRUNIPACNPB8210
012026010702USIM3       010USIMINAS    ON      N1   R$  000000000063800000000006470000000000625000000000064000000000006470000000000643000000000064801169000000000000493800000000000316379100000000000000009999123100000010000000000000BRUSIMACNOR3167
012026010702USIM5       010USIMINAS    PNA     N1   R$  000000000064500000000006530000000000627000000000064100000000006480000000000648000000000064912124000000000014210300000000009121739800000000000000009999123100000010000000000000BRUSIMACNPA6172
012026010702PDGR3       010PDG REALT   ON      NM   R$  000000000014200000000001440000000000137000000000014100000000001370000000000137000000000014000112000000000000235800000000000033322100000000000000009999123100000010000000000000BRPDGRACNOR8123
012026010702PDTC3       010PADTEC      ON      NM   R$  000000000013900000000001420000000000135000000000013900000000001370000000000137000000000013800026000000000000007600000000000001056400000000000000009999123100000010000000000000BRPDTCACNOR3101
012026010702PEAB4       010PAR AL BAHIAPN  ED       R$  000000000382000000000038200000000003820000000000382000000000038200000000003820000000000408600001000000000000000400000000000001528000000000000000009999123100000010000000000000BRPEABACNPR0137
012026010702PETR3       010PETROBRAS   ON  EDJ N2   R$  000000000311200000000031300000000003099000000000311200000000031180000000003118000000000312712623000000000011359800000000035358785500000000000000009999123100000010000000000000BRPETRACNOR9212
012026010702PETR4       010PETROBRAS   PN  EDJ N2   R$  000000000296700000000029830000000002953000000000296600000000029830000000002983000000000298437918000000000028132900000000083469386200000000000000009999123100000010000000000000BRPETRACNPR6223
012026010702RAIL3       010RUMO S.A.   ON      NM   R$  000000000148000000000014900000000001451000000000146100000000014660000000001463000000000146714314000000000006364800000000009305036100000000000000009999123100000010000000000000BRRAILACNOR9106
012026010702SCAR3       010SAO CARLOS  ON      NM   R$  000000000138400000000013840000000001357000000000136700000000013700000000001366000000000137200179000000000000048700000000000066605800000000000000009999123100000010000000000000BRSCARACNOR7133
012026010702SEER3       010SER EDUCA   ON      NM   R$  000000000096800000000009990000000000953000000000097500000000009950000000000995000000000099606865000000000001737200000000001694119400000000000000009999123100000010000000000000BRSEERACNOR5120
012026010702SEQL3       010SEQUOIA LOG ON      NM   R$  000000000021900000000002220000000000215000000000021600000000002150000000000215000000000021700244000000000000141300000000000030595600000000000000009999123100000010000000000000BRSEQLACNOR2108
012026010702SHOW3       010TIME FOR FUNON      NM   R$  000000000065000000000006670000000000638000000000065400000000006670000000000657000000000066700212000000000000024200000000000015849300000000000000009999123100000010000000000000BRSHOWACNOR7106
012026010702SHUL4       010SCHULZ      PN  EDJ      R$  000000000050600000000005140000000000498000000000050500000000005140000000000509000000000051400702000000000000310900000000000157210200000000000000009999123100000010000000000000BRSHULACNPR4163
012026010702SIMH3       010SIMPAR      ON      NM   R$  000000000054300000000005450000000000519000000000052600000000005320000000000528000000000053205791000000000003770400000000001984186300000000000000009999123100000010000000000000BRSIMHACNOR0109
012026010702TOKY3       010GRUPO TOKY  ON      NM   R$  000000000008000000000000800000000000076000000000007700000000000760000000000076000000000007700089000000000000109000000000000008468000000000000000009999123100000010000000000000BRTOKYACNOR5101
012026010702TOTS3       010TOTVS       ON      NM   R$  000000000419800000000042640000000004185000000000424300000000042570000000004243000000000425710293000000000002353400000000009986930300000000000000009999123100000010000000000000BRTOTSACNOR8150
012026010702TPIS3       010TRIUNFO PARTON  ED  NM   R$  000000000050900000000005090000000000501000000000050400000000005050000000000504000000000050500041000000000000029100000000000014690000000000000000009999123100000010000000000000BRTPISACNOR8120
012026010702TRAD3       010TC          ON      NM   R$  000000000039900000000004000000000000381000000000038900000000003900000000000390000000000039900033000000000000007100000000000002768100000000000000009999123100000010000000000000BRTRADACNOR3102
012026010702NEOE3       010NEOENERGIA  ON  EDJ NM   R$  000000000318200000000031950000000003177000000000318300000000031950000000003195000000000319601207000000000001002100000000003190666100000000000000009999123100000010000000000000BRNEOEACNOR3127
012026010702NGRD3       010NEOGRID     ON      NM   R$  000000000277800000000028160000000002778000000000279800000000028150000000002799000000000281400087000000000000019800000000000055415500000000000000009999123100000010000000000000BRNGRDACNOR3106
012026010702NORD3       010NORDON MET  ON           R$  000000000041600000000004160000000000405000000000041400000000004050000000000401000000000045000004000000000000001100000000000000455700000000000000009999123100000010000000000000BRNORDACNOR7135
012026010702NUTR3       010NUTRIPLANT  ON      MA   R$  000000000026600000000002690000000000265000000000026600000000002650000000000264000000000026600012000000000000001200000000000000320300000000000000009999123100000010000000000000BRNUTRACNOR0104
012026010702OBTC3       010ORANJEBTC   ON           R$  000000000094400000000009450000000000922000000000092900000000009230000000000923000000000093600568000000000000096600000000000089823900000000000000009999123100000010000000000000BROBTCACNOR0100
012026010702ODPV3       010ODONTOPREV  ON      NM   R$  000000000121300000000012200000000001136000000000116100000000011400000000001139000000000114005860000000000002284500000000002653599000000000000000009999123100000010000000000000BRODPVACNOR4213
012026010702OFSA3       010OUROFINO S/AON  EJ  NM   R$  000000000235000000000023500000000002329000000000233600000000023300000000002329000000000240100004000000000000000900000000000002102900000000000000009999123100000010000000000000BROFSAACNOR7122
012026010702SUZB3       010SUZANO S.A. ON      NM   R$  000000000501600000000050630000000004988000000000501100000000049940000000004994000000000500712175000000000008357300000000041880055300000000000000009999123100000010000000000000BRSUZBACNOR0135
012026010702VIVR3       010VIVER       ON      NM   R$  000000000006100000000000620000000000059000000000006000000000000610000000000060000000000006100042000000000000077200000000000004664100000000000000009999123100000010000000000000BRVIVRACNOR4125
012026010702VIVT3       010TELEF BRASILON  EJ       R$  000000000329500000000033300000000003276000000000330100000000032760000000003275000000000329011967000000000003147400000000010391503400000000000000009999123100000010000000000000BRVIVTACNOR0199
012026010702VLID3       010VALID       ON      NM   R$  000000000207700000000020850000000002052000000000206600000000020660000000002065000000000207401157000000000000203500000000000420508300000000000000009999123100000010000000000000BRVLIDACNOR5148
012026010702VSTE3       010VESTE       ON      NM   R$  000000000039200000000003920000000000383000000000038700000000003890000000000383000000000038800053000000000000018500000000000007163900000000000000009999123100000010000000000000BRVSTEACNOR5104
012026010702VTRU3       010VITRUEDUCA  ON      NM   R$  000000000151000000000015440000000001493000000000152200000000015350000000001520000000000153502440000000000000374700000000000570360000000000000000009999123100000010000000000000BRVTRUACNOR3101
012026010702VULC3       010VULCABRAS   ON  ED  NM   R$  000000000199000000000019920000000001950000000000196300000000019690000000001963000000000196903132000000000000889900000000001747197700000000000000009999123100000010000000000000BRVULCACNOR2181
012026010702VVEO3       010VIVEO       ON      NM   R$  000000000013200000000001390000000000126000000000013200000000001340000000000134000000000013501301000000000002415100000000000320321800000000000000009999123100000010000000000000BRVVEOACNOR0104
012026010702WEST3       010WESTWING    ON      NM   R$  000000000053500000000005950000000000535000000000057100000000005780000000000561000000000057900066000000000000018900000000000010798300000000000000009999123100000010000000000000BRWESTACNOR3101
012026010702WHRL3       010WHIRLPOOL   ON           R$  000000000042700000000004340000000000427000000000042800000000004270000000000427000000000043100016000000000000005300000000000002268400000000000000009999123100000010000000000000BRWHRLACNOR5135
012026010702WHRL4       010WHIRLPOOL   PN           R$  000000000046100000000004670000000000461000000000046300000000004630000000000461000000000046400014000000000000002200000000000001019300000000000000009999123100000010000000000000BRWHRLACNPR2135
012026010702WIZC3       010WIZ CO      ON  ED  NM   R$  000000000091200000000009240000000000904000000000091600000000009240000000000916000000000092401848000000000000375600000000000344099300000000000000009999123100000010000000000000BRWIZCACNOR5104
012026010702WLMM3       010WLM IND COM ON  ED       R$  000000000196200000000019620000000001962000000000196200000000019620000000001990000000000210000001000000000000000100000000000000196200000000000000009999123100000010000000000000BRWLMMACNOR6124
012026010702WLMM4       010WLM IND COM PN  ED       R$  000000000201200000000021200000000002012000000000209800000000021200000000002050000000000211500013000000000000002200000000000004616500000000000000009999123100000010000000000000BRWLMMACNPR3124
012026010702YDUQ3       010YDUQS PART  ON  ED  NM   R$  000000000123400000000012650000000001204000000000123400000000012600000000001259000000000126013540000000000006327900000000007811139500000000000000009999123100000010000000000000BRYDUQACNOR3108
012026010702VAMO3       010VAMOS       ON      NM   R$  000000000033100000000003320000000000323000000000032600000000003260000000000325000000000032810364000000000011710500000000003827593100000000000000009999123100000010000000000000BRVAMOACNOR7109
012026010702TAEE11      010TAESA       UNT     N2   R$  000000000420800000000042480000000004133000000000416500000000041350000000004134000000000413508553000000000001710400000000007123868900000000000000009999123100000010000000000000BRTAEECDAM10153
012026010702TAEE3       010TAESA       ON      N2   R$  000000000140200000000014020000000001368000000000138200000000013680000000001368000000000138400240000000000000037100000000000051278300000000000000009999123100000010000000000000BRTAEEACNOR9153
012026010702TAEE4       010TAESA       PN      N2   R$  000000000140400000000014100000000001386000000000139800000000013970000000001393000000000139800459000000000000100600000000000140671500000000000000009999123100000010000000000000BRTAEEACNPR6153
012026010702IGTI11      010IGUATEMI S.AUNT     N1   R$  000000000257500000000025800000000002538000000000255300000000025380000000002538000000000254508070000000000001415900000000003615709100000000000000009999123100000010000000000000BRIGTICDAM16108
012026010702IGTI3       010IGUATEMI S.AON      N1   R$  000000000029600000000003060000000000292000000000029600000000002920000000000292000000000029800064000000000000013200000000000003913800000000000000009999123100000010000000000000BRIGTIACNOR8108
012026010702IGTI4       010IGUATEMI S.APN      N1   R$  000000000113900000000011400000000001139000000000113900000000011400000000001107000000000114000002000000000000000400000000000000455800000000000000009999123100000010000000000000BRIGTIACNPR5108
012026010702AURE3       010AUREN       ON      NM   R$  000000000119000000000012050000000001153000000000116700000000011530000000001152000000000115608174000000000002232400000000002606536900000000000000009999123100000010000000000000BRAUREACNOR9105
012026010702AVLL3       010ALPHAVILLE  ON      NM   R$  000000000009800000000000980000000000094000000000009600000000000950000000000094000000000009600007000000000000001800000000000000173100000000000000009999123100000010000000000000BRAVLLACNOR5103
012026010702AXIA3       010AXIA ENERGIAON      N1   R$  000000000517000000000051950000000004951000000000503300000000049510000000004951000000000496140670000000000016604900000000083586806100000000000000009999123100000010000000000000BRAXIAACNOR0102
012026010702AXIA6       010AXIA ENERGIAPNB     N1   R$  000000000544900000000054490000000005187000000000526600000000051870000000005184000000000520007970000000000001817000000000009569518300000000000000009999123100000010000000000000BRAXIAACNPB1103
012026010702AXIA7       010AXIA ENERGIAPNC     N1   R$  000000000497000000000049870000000004762000000000481500000000047620000000004762000000000476413817000000000004870800000000023454026700000000000000009999123100000010000000000000BRAXIAACNPC9100
012026010702BBDC3       010BRADESCO    ON  EJ  N1   R$  000000000161900000000016210000000001593000000000160100000000016030000000001598000000000160309612000000000004733100000000007578611200000000000000009999123100000010000000000000BRBBDCACNOR1796
012026010702BBDC4       010BRADESCO    PN  EJ  N1   R$  000000000190000000000019100000000001870000000000188200000000018840000000001881000000000188417438000000000017154200000000032287414100000000000000009999123100000010000000000000BRBBDCACNPR8796
012026010702WDCN3       010WDC NETWORKSON      NM   R$  000000000027500000000002780000000000271000000000027300000000002720000000000271000000000027800018000000000000006200000000000001696400000000000000009999123100000010000000000000BRWDCNACNOR2100
012026010702BPAN4       010BANCO PAN   PN      N1   R$  000000000114400000000011750000000001127000000000114600000000011450000000001145000000000114601565000000000000462500000000000530104700000000000000009999123100000010000000000000BRBPANACNPR1116
012026010702BRAP3       010BRADESPAR   ON      N1   R$  000000000188400000000018860000000001859000000000187500000000018690000000001868000000000186900274000000000000064500000000000120948600000000000000009999123100000010000000000000BRBRAPACNOR5153
012026010702BRAP4       010BRADESPAR   PN      N1   R$  000000000211300000000021440000000002104000000000212700000000021370000000002127000000000213810628000000000004599300000000009786435700000000000000009999123100000010000000000000BRBRAPACNPR2153
012026010702WEGE3       010WEG         ON      NM   R$  000000000480000000000048040000000004753000000000477000000000047700000000004765000000000477117189000000000004904900000000023399979300000000000000009999123100000010000000000000BRWEGEACNOR0234
012026010702PATI3       010PANATLANTICAON           R$  000000000291000000000029100000000002910000000000291000000000029100000000002811000000000298000001000000000000000100000000000000291000000000000000009999123100000010000000000000BRPATIACNOR6069
012026010702AALR3       010ALLIAR      ON      NM   R$  000000000048900000000004900000000000462000000000046900000000004620000000000462000000000047000095000000000000021400000000000010046500000000000000009999123100000010000000000000BRAALRACNOR6104
012026010702ABCB4       010ABC BRASIL  PN  EJS N2   R$  000000000241500000000024230000000002389000000000239800000000024020000000002391000000000240303651000000000000838600000000002011210800000000000000009999123100000010000000000000BRABCBACNPR4150
012026010702ABEV3       010AMBEV S/A   ON           R$  000000000136500000000013720000000001360000000000136700000000013700000000001368000000000137023439000000000028605400000000039122952400000000000000009999123100000010000000000000BRABEVACNOR1134
012026010702BBSE3       010BBSEGURIDADEON      NM   R$  000000000361000000000036110000000003536000000000355600000000035400000000003539000000000354512787000000000004478100000000015927264200000000000000009999123100000010000000000000BRBBSEACNOR5127
012026010702CMIN3       010CSNMINERACAOON  EDJ N2   R$  000000000055600000000005620000000000548000000000055600000000005580000000000558000000000055909260000000000007946900000000004425998500000000000000009999123100000010000000000000BRCMINACNOR2116
012026010702COCE3       010COELCE      ON           R$  000000000349800000000034980000000003498000000000349800000000034980000000003250000000000375000001000000000000000100000000000000349800000000000000009999123100000010000000000000BRCOCEACNOR0149
012026010702COCE5       010COELCE      PNA          R$  000000000343600000000034800000000003436000000000346800000000034790000000003395000000000348000053000000000000011600000000000040232400000000000000009999123100000010000000000000BRCOCEACNPA3150
012026010702COGN3       010COGNA ON    ON  EDB NM   R$  000000000035000000000003600000000000345000000000035400000000003580000000000358000000000035923278000000000049039700000000017396895500000000000000009999123100000010000000000000BRCOGNACNOR2110
012026010702CSUD3       010CSU DIGITAL ON      NM   R$  000000000177100000000017890000000001750000000000176700000000017770000000001760000000000177700513000000000000077100000000000136245300000000000000009999123100000010000000000000BRCSUDACNOR5117
012026010702HAGA4       010HAGA S/A    PN           R$  000000000011200000000001210000000000112000000000011900000000001130000000000112000000000011300025000000000000010400000000000001241400000000000000009999123100000010000000000000BRHAGAACNPR4103
012026010702HAPV3       010HAPVIDA     ON      NM   R$  000000000164900000000016630000000001605000000000162200000000016140000000001613000000000161810456000000000003737500000000006063942900000000000000009999123100000010000000000000BRHAPVACNOR4119
012026010702ISAE3       010ISA ENERGIA ON  EJ  N1   R$  000000000340000000000034000000000003351000000000338200000000033510000000003326000000000340000017000000000000001700000000000005751000000000000000009999123100000010000000000000BRISAEACNOR2107
012026010702ISAE4       010ISA ENERGIA PN  EJ  N1   R$  000000000269700000000027090000000002668000000000268200000000026810000000002679000000000268207452000000000002491000000000006682079900000000000000009999123100000010000000000000BRISAEACNPR9107
012026010702GEPA4       010GER PARANAP PN  ED       R$  000000000330100000000033010000000003300000000000330000000000033000000000003280000000000349500004000000000000000400000000000001320100000000000000009999123100000010000000000000BRGEPAACNPR9165
012026010702GFSA3       010GAFISA      ON      NM   R$  000000000049900000000005010000000000488000000000049100000000004900000000000490000000000049100382000000000000322500000000000158604200000000000000009999123100000010000000000000BRGFSAACNOR3127
012026010702GGBR3       010GERDAU      ON      N1   R$  000000000179900000000018260000000001775000000000180100000000018000000000001800000000000181500166000000000000034800000000000062677900000000000000009999123100000010000000000000BRGGBRACNOR1198
012026010702GGBR4       010GERDAU      PN      N1   R$  000000000210200000000021380000000002082000000000211900000000021270000000002124000000000213018106000000000009547500000000020234555300000000000000009999123100000010000000000000BRGGBRACNPR8198
012026010702MDIA3       010M.DIASBRANCOON      NM   R$  000000000241000000000024160000000002389000000000240600000000024160000000002404000000000241601436000000000000239300000000000575916900000000000000009999123100000010000000000000BRMDIAACNOR7149
012026010702MDNE3       010MOURA DUBEUXON  ED  NM   R$  000000000267900000000027140000000002591000000000267300000000027020000000002702000000000270306655000000000002009300000000005371423400000000000000009999123100000010000000000000BRMDNEACNOR9104
012026010702MEAL3       010IMC S/A     ON      NM   R$  000000000013000000000001300000000000125000000000012500000000001270000000000126000000000012700050000000000000060500000000000007592800000000000000009999123100000010000000000000BRMEALACNOR9105
012026010702MELK3       010MELNICK     ON      NM   R$  000000000037300000000003740000000000367000000000037000000000003700000000000369000000000037101109000000000000553100000000000204743900000000000000009999123100000010000000000000BRMELKACNOR8116
012026010702MGEL4       010MANGELS INDLPN           R$  000000000059500000000005950000000000550000000000057200000000005660000000000565000000000060800008000000000000000900000000000000515100000000000000009999123100000010000000000000BRMGELACNPR3147
012026010702MGLU3       010MAGAZ LUIZA ON  EB  NM   R$  000000000091400000000009290000000000877000000000089800000000009290000000000920000000000092924514000000000023440400000000021064023300000000000000009999123100000010000000000000BRMGLUACNOR2130
012026010702PFRM3       010PROFARMA    ON  ED  NM   R$  000000000084000000000008450000000000808000000000081900000000008240000000000817000000000082400979000000000000226600000000000185768800000000000000009999123100000010000000000000BRPFRMACNOR1122
012026010702PGMN3       010PAGUE MENOS ON  EJS NM   R$  000000000066700000000006670000000000635000000000064200000000006440000000000642000000000064412739000000000004794700000000003081733300000000000000009999123100000010000000000000BRPGMNACNOR8106
012026010702PINE3       010PINE        ON      N2   R$  000000000129000000000013000000000001276000000000128100000000013000000000001251000000000130000016000000000000008500000000000010892100000000000000009999123100000010000000000000BRPINEACNOR1159
012026010702PINE4       010PINE        PN      N2   R$  000000000130800000000013080000000001252000000000127100000000012850000000001272000000000128501420000000000000436000000000000554317900000000000000009999123100000010000000000000BRPINEACNPR8159
012026010702PLPL3       010PLANOEPLANO ON  ED  NM   R$  000000000139500000000014250000000001363000000000139400000000014250000000001422000000000142504609000000000001198000000000001670371200000000000000009999123100000010000000000000BRPLPLACNOR5106
012026010702PNVL3       010DIMED       ON      NM   R$  000000000123000000000012300000000001184000000000120200000000012130000000001205000000000121402450000000000000584900000000000703413700000000000000009999123100000010000000000000BRPNVLACNOR9212
012026010702POMO3       010MARCOPOLO   ON  EB  N2   R$  000000000056600000000005660000000000555000000000055900000000005580000000000558000000000056002637000000000001301900000000000727953200000000000000009999123100000010000000000000BRPOMOACNOR0105
012026010702POMO4       010MARCOPOLO   PN  EB  N2   R$  000000000059900000000005990000000000589000000000059200000000005930000000000592000000000059311924000000000005391000000000003193502100000000000000009999123100000010000000000000BRPOMOACNPR7105
012026010702PRNR3       010PRINER      ON      NM   R$  000000000162000000000016200000000001567000000000158500000000015800000000001580000000000158101085000000000000266300000000000422160200000000000000009999123100000010000000000000BRPRNRACNOR4111
012026010702PSSA3       010PORTO SEGUROON  EJ  NM   R$  000000000497500000000049790000000004846000000000492800000000049650000000004965000000000496911133000000000003322000000000016372514300000000000000009999123100000010000000000000BRPSSAACNOR7161
012026010702SANB11      010SANTANDER BRUNT EJ       R$  000000000338700000000033870000000003291000000000335400000000033150000000003315000000000331710823000000000004936300000000016559425900000000000000009999123100000010000000000000BRSANBCDAM13171
012026010702SANB3       010SANTANDER BRON  EJ       R$  000000000165200000000016520000000001604000000000162300000000016190000000001619000000000162100289000000000000045900000000000074528700000000000000009999123100000010000000000000BRSANBACNOR8178
012026010702SANB4       010SANTANDER BRPN  EJ       R$  000000000172000000000017290000000001685000000000169800000000016850000000001682000000000170500288000000000000057500000000000097676100000000000000009999123100000010000000000000BRSANBACNPR5178
012026010702SAPR11      010SANEPAR     UNT EJ  N2   R$  000000000405100000000041170000000004045000000000409400000000041030000000004100000000000410805772000000000001001200000000004099161000000000000000009999123100000010000000000000BRSAPRCDAM13121
012026010702SAPR3       010SANEPAR     ON  EJ  N2   R$  000000000088700000000009100000000000885000000000089900000000009010000000000901000000000091000463000000000000103600000000000093192700000000000000009999123100000010000000000000BRSAPRACNOR9162
012026010702HYPE3       010HYPERA      ON  EJ  NM   R$  000000000238800000000024330000000002364000000000238700000000023660000000002361000000000236609822000000000002037700000000004864374100000000000000009999123100000010000000000000BRHYPEACNOR0149
012026010702JALL3       010JALLESMACHADON      NM   R$  000000000027600000000002790000000000268000000000027100000000002710000000000271000000000027200999000000000000903500000000000245373800000000000000009999123100000010000000000000BRJALLACNOR0106
012026010702IBOV11      010IBOVESPA    IBO/         R$  000001620820000000162082000000016208200000001620820000000162082000000000000000000000000000000043000000000000117360000000019021943520000000000000009999123100001000000000000000BRIBOVINDM18014
012026010702ONCO3       010ONCOCLINICASON      NM   R$  000000000026500000000003070000000000263000000000028400000000002920000000000292000000000029506740000000000010839800000000003085256200000000000000009999123100000010000000000000BRONCOACNOR6102
012026010702OPCT3       010OCEANPACT   ON      NM   R$  000000000085700000000008640000000000843000000000085700000000008620000000000855000000000086301669000000000000443500000000000380126200000000000000009999123100000010000000000000BROPCTACNOR0100
012026010702ORVR3       010ORIZON      ON      NM   R$  000000000711700000000071270000000006981000000000704100000000070500000000007036000000000706104156000000000000762500000000005369188500000000000000009999123100000010000000000000BRORVRACNOR0101
012026010702SYNE3       010SYN PROP TECON      NM   R$  000000000047400000000004800000000000468000000000047200000000004680000000000468000000000047402335000000000000839500000000000396322000000000000000009999123100000010000000000000BRSYNEACNOR2107
012026010702ITUB3       010ITAUUNIBANCOON  EJB N1   R$  000000000374000000000037400000000003667000000000368500000000036700000000003670000000000367904854000000000001201500000000004428005600000000000000009999123100000010000000000000BRITUBACNOR4364
012026010702ITUB4       010ITAUUNIBANCOPN  EJB N1   R$  000000000399000000000039980000000003919000000000394100000000039320000000003932000000000393332415000000000020894500000000082365876800000000000000009999123100000010000000000000BRITUBACNPR1364
012026010702LUPA3       010LUPATECH    ON      NM   R$  000000000009000000000000910000000000087000000000008800000000000870000000000087000000000008900064000000000000067000000000000005951000000000000000009999123100000010000000000000BRLUPAACNOR8112
012026010702LUXM4       010TREVISA     PN           R$  000000000046100000000004620000000000450000000000045600000000004500000000000450000000000046100004000000000000002000000000000000912000000000000000009999123100000010000000000000BRLUXMACNPR4053
012026010702LWSA3       010LWSA        ON      NM   R$  000000000042800000000004300000000000420000000000042300000000004250000000000421000000000042604054000000000001574100000000000666019400000000000000009999123100000010000000000000BRLWSAACNOR8105
012026010702SNSY5       010SANSUY      PNA          R$  000000000028400000000002840000000000284000000000028400000000002840000000000261000000000028500001000000000000000100000000000000028400000000000000009999123100000010000000000000BRSNSYACNPA5111
012026010702SOJA3       010BOA SAFRA   ON      NM   R$  000000000089900000000008990000000000857000000000086800000000008570000000000857000000000086102645000000000001069000000000000928390000000000000000009999123100000010000000000000BRSOJAACNOR9109
012026010702CTKA4       010KARSTEN     PN           R$  000000000389900000000039400000000003899000000000390900000000039400000000003820000000000395000004000000000000000400000000000001563900000000000000009999123100000010000000000000BRCTKAACNPR7043
012026010702GOLL54      010GOL         PN *P   N2   R$  000000000061400000000006160000000000561000000000061200000000006150000000000581000000000061600841000000000899619000000000000550784587000000000000009999123100010000000000000000BRGOLLA01PR5100
012026010702GRND3       010GRENDENE    ON  ED  NM   R$  000000000046800000000004710000000000461000000000046200000000004640000000000463000000000046406252000000000003307800000000001531387100000000000000009999123100000010000000000000BRGRNDACNOR3182
012026010702GSHP3       010GENERALSHOPPON           R$  000000000042000000000004200000000000420000000000042000000000004200000000000313000000000042000001000000000000000100000000000000042000000000000000009999123100000010000000000000BRGSHPACNOR7102
012026010702GUAR3       010GUARARAPES  ON  EDJ NM   R$  000000000087000000000008730000000000846000000000085300000000008550000000000855000000000085606625000000000002046600000000001746105400000000000000009999123100000010000000000000BRGUARACNOR4175
012026010702B3SA3       010B3          ON  EJ  NM   R$  000000000144900000000014610000000001410000000000142700000000014280000000001427000000000142827323000000000028359300000000040487193700000000000000009999123100000010000000000000BRB3SAACNOR6140
012026010702CLSC4       010CELESC      PN      N2   R$  000000001259500000000126760000000012501000000001260500000000126330000000012494000000001263300035000000000000004600000000000057984700000000000000009999123100000010000000000000BRCLSCACNPR3138
012026010702CMIG3       010CEMIG       ON  EDJ N1   R$  000000000145400000000014540000000001426000000000143100000000014300000000001430000000000143500344000000000000056400000000000080722500000000000000009999123100000010000000000000BRCMIGACNOR6251
012026010702CMIG4       010CEMIG       PN  EDJ N1   R$  000000000111200000000011130000000001097000000000110100000000011000000000001100000000000110133979000000000014402900000000015864092900000000000000009999123100000010000000000000BRCMIGACNPR3252
012026010702CSNA3       010SID NACIONALON           R$  000000000093600000000009910000000000927000000000096800000000009850000000000985000000000098618314000000000016022900000000015516823100000000000000009999123100000010000000000000BRCSNAACNOR6263
012026010702GGPS3       010GPS         ON      NM   R$  000000000167100000000016730000000001635000000000165300000000016530000000001650000000000165807204000000000001624000000000002685902000000000000000009999123100000010000000000000BRGGPSACNOR9106
012026010702AZEV3       010AZEVEDO     ON           R$  000000000002900000000000310000000000027000000000002900000000000290000000000028000000000002900272000000000002246600000000000065425000000000000000009999123100000010000000000000BRAZEVACNOR0123
012026010702AZEV4       010AZEVEDO     PN           R$  000000000002500000000000260000000000023000000000002400000000000230000000000023000000000002400579000000000009485600000000000229677000000000000000009999123100000010000000000000BRAZEVACNPR7123
012026010702AZTE3       010AZT ENERGIA ON           R$  000000000004300000000000440000000000042000000000004200000000000430000000000042000000000004300293000000000001373500000000000057970100000000000000009999123100000010000000000000BRAZTEACNOR4101
012026010702AZZA3       010AZZAS 2154  ON      NM   R$  000000000251400000000025240000000002460000000000249100000000025000000000002500000000000250218982000000000005836300000000014543935000000000000000009999123100000010000000000000BRAZZAACNOR9104
012026010702CBAV3       010CBA         ON      NM   R$  000000000077300000000008030000000000756000000000077600000000007970000000000796000000000079711745000000000007248200000000005631088500000000000000009999123100000010000000000000BRCBAVACNOR5104
012026010702CBEE3       010AMPLA ENERG ON  ES       R$  000000000101000000000010990000000001010000000000106900000000010980000000001000000000000109900003000000000000000300000000000000320700000000000000009999123100000010000000000000BRCBEEACNOR3163
012026010702CEAB3       010CEA MODAS   ON  EJ  NM   R$  000000000106400000000010660000000001010000000000104600000000010460000000001045000000000104626718000000000030591200000000032009418900000000000000009999123100000010000000000000BRCEABACNOR1105
012026010702CEBR3       010CEB         ON           R$  000000000275600000000027720000000002756000000000276700000000027590000000002759000000000278000007000000000000000700000000000001937400000000000000009999123100000010000000000000BRCEBRACNOR5129
012026010702CSED3       010CRUZEIRO EDUON      NM   R$  000000000063300000000006420000000000618000000000062900000000006290000000000619000000000062902215000000000000796300000000000501019900000000000000009999123100000010000000000000BRCSEDACNOR9107
012026010702CSMG3       010COPASA      ON  EJ  NM   R$  000000000430700000000043070000000004227000000000425800000000042700000000004261000000000427008468000000000001302400000000005546767200000000000000009999123100000010000000000000BRCSMGACNOR5183
012026010702IFCM3       010INFRACOMM   ON      NM   R$  000000000011400000000001140000000000107000000000010900000000001080000000000108000000000011000215000000000000254000000000000027749600000000000000009999123100000010000000000000BRIFCMACNOR8108
012026010702MATD3       010MATER DEI   ON      NM   R$  000000000053400000000005380000000000517000000000052500000000005380000000000523000000000053800328000000000000053900000000000028331800000000000000009999123100000010000000000000BRMATDACNOR4106
012026010702MBRF3       010MARFRIG     ON      NM   R$  000000000191900000000019240000000001862000000000186400000000018620000000001862000000000186517002000000000055172500000000102872809500000000000000009999123100000010000000000000BRMBRFACNOR1100
012026010702MYPK3       010IOCHP-MAXIONON      NM   R$  000000000098500000000009880000000000968000000000097200000000009760000000000973000000000097605069000000000001808300000000001759345400000000000000009999123100000010000000000000BRMYPKACNOR7158
012026010702NATU3       010NATURA      ON      NM   R$  000000000074300000000007470000000000726000000000073000000000007280000000000727000000000072912309000000000005975700000000004366966400000000000000009999123100000010000000000000BRNATUACNOR6136
012026010702RNEW3       010RENOVA      ON      N2   R$  000000000010800000000001120000000000103000000000010700000000001100000000000107000000000011000087000000000000040200000000000004315400000000000000009999123100000010000000000000BRRNEWACNOR8113
012026010702RNEW4       010RENOVA      PN      N2   R$  000000000009400000000000970000000000091000000000009400000000000920000000000092000000000009300104000000000000178200000000000016791400000000000000009999123100000010000000000000BRRNEWACNPR5113
012026010702ROMI3       010ROMI        ON  EJ  NM   R$  000000000081500000000008230000000000812000000000081700000000008180000000000814000000000081800900000000000000184700000000000150998300000000000000009999123100000010000000000000BRROMIACNOR8201
012026010702RPAD5       010ALFA HOLDINGPNA ED       R$  000000000064000000000006400000000000640000000000064000000000006400000000000641000000000070000001000000000000000100000000000000064000000000000000009999123100000010000000000000BRRPADACNPA4222
012026010702RSUL4       010RIOSULENSE  PN  ED       R$  000000000690100000000069010000000006250000000000656800000000064990000000006403000000000650000035000000000000004200000000000027587500000000000000009999123100000010000000000000BRRSULACNPR3116
012026010702RVEE3       010REVEE       ON      NM   R$  000000000023000000000002300000000000230000000000023000000000002300000000000195000000000023000001000000000000000100000000000000023000000000000000009999123100000010000000000000BRRVEEACNOR9102
012026010702QUAL3       010QUALICORP   ON      NM   R$  000000000024200000000002420000000000228000000000023100000000002300000000000230000000000023401805000000000002367400000000000548801000000000000000009999123100000010000000000000BRQUALACNOR6122
012026010702RADL3       010RAIADROGASILON  EB  NM   R$  000000000245400000000024740000000002377000000000240800000000024180000000002417000000000242021728000000000007982100000000019225255000000000000000009999123100000010000000000000BRRADLACNOR0165
012026010702SAPR4       010SANEPAR     PN  EJ  N2   R$  000000000079100000000007990000000000785000000000079300000000007940000000000794000000000079502189000000000000629700000000000499839300000000000000009999123100000010000000000000BRSAPRACNPR6162
012026010702SBFG3       010GRUPO SBF   ON      NM   R$  000000000131200000000013120000000001268000000000128300000000012960000000001284000000000129603622000000000001696600000000002177114400000000000000009999123100000010000000000000BRSBFGACNOR1104
012026010702SBSP3       010SABESP      ON  EJB NM   R$  000000001306200000000131320000000012869000000001296600000000129710000000012946000000001297114632000000000002535300000000032873133200000000000000009999123100000010000000000000BRSBSPACNOR5165
012026010702TASA3       010TAURUS ARMASON      N2   R$  000000000053300000000005580000000000532000000000054600000000005460000000000544000000000054800159000000000000036400000000000019904000000000000000009999123100000010000000000000BRTASAACNOR7106
012026010702TASA4       010TAURUS ARMASPN      N2   R$  000000000051400000000005520000000000513000000000053800000000005420000000000540000000000054202244000000000001531000000000000825150500000000000000009999123100000010000000000000BRTASAACNPR4106
012026010702TCSA3       010TECNISA     ON      NM   R$  000000000012100000000001280000000000120000000000012400000000001280000000000127000000000012800119000000000000087700000000000010888100000000000000009999123100000010000000000000BRTCSAACNOR3112
012026010702TECN3       010TECHNOS     ON  ED  NM   R$  000000000074300000000007430000000000704000000000071400000000007040000000000704000000000070900146000000000000026800000000000019138300000000000000009999123100000010000000000000BRTECNACNOR6111
012026010702TELB3       010TELEBRAS    ON           R$  000000000116400000000011640000000001164000000000116400000000011640000000001120000000000113500001000000000000000100000000000000116400000000000000009999123100000010000000000000BRTELBACNOR2142
012026010702TELB4       010TELEBRAS    PN           R$  000000000079400000000007940000000000787000000000079200000000007870000000000782000000000079400004000000000000001000000000000000792600000000000000009999123100000010000000000000BRTELBACNPR9142
012026010702AERI3       010AERIS       ON      NM   R$  000000000032100000000003290000000000321000000000032600000000003280000000000326000000000032800158000000000000041600000000000013577500000000000000009999123100000010000000000000BRAERIACNOR4102
012026010702AGRO3       010BRASILAGRO  ON      NM   R$  000000000198400000000019840000000001951000000000196300000000019630000000001961000000000196300900000000000000140100000000000275031000000000000000009999123100000010000000000000BRAGROACNOR7116
012026010702ALLD3       010ALLIED      ON      NM   R$  000000000085000000000008540000000000840000000000084600000000008470000000000845000000000084701034000000000000335200000000000283724300000000000000009999123100000010000000000000BRALLDACNOR3109
012026010702ALOS3       010ALLOS       ON      NM   R$  000000000291000000000029100000000002866000000000287900000000028770000000002876000000000288014191000000000003955000000000011388575000000000000000009999123100000010000000000000BRALOSACNOR5117
012026010702BALM4       010BAUMER      PN           R$  000000000189900000000018990000000001899000000000189900000000018990000000001861000000000189900002000000000000000200000000000000379800000000000000009999123100000010000000000000BRBALMACNPR2060
012026010702BAZA3       010AMAZONIA    ON           R$  000000000782500000000078480000000007770000000000779300000000077700000000007750000000000779800023000000000000002500000000000019484800000000000000009999123100000010000000000000BRBAZAACNOR0180
012026010702BBAS3       010BRASIL      ON      NM   R$  000000000220800000000022080000000002164000000000217200000000021700000000002170000000000217525326000000000027650400000000060078588900000000000000009999123100000010000000000000BRBBASACNOR3334
012026010702CURY3       010CURY S/A    ON      NM   R$  000000000324800000000032560000000003155000000000319100000000031940000000003189000000000319410897000000000001920500000000006129415000000000000000009999123100000010000000000000BRCURYACNOR3115
012026010702CVCB3       010CVC BRASIL  ON      NM   R$  000000000023200000000002330000000000224000000000022700000000002290000000000226000000000022906797000000000009642200000000002192516700000000000000009999123100000010000000000000BRCVCBACNOR1118
012026010702CXSE3       010CAIXA SEGURION  EDR NM   R$  000000000163100000000016320000000001610000000000161600000000016150000000001613000000000161508241000000000002076800000000003357155200000000000000009999123100000010000000000000BRCXSEACNOR7114
012026010702ENEV3       010ENEVA       ON      NM   R$  000000000202200000000020330000000001979000000000200100000000020020000000001996000000000200216081000000000009096200000000018203245000000000000000009999123100000010000000000000BRENEVACNOR8107
012026010702ENGI11      010ENERGISA    UNT     N2   R$  000000000476800000000048080000000004644000000000467300000000046720000000004660000000000467207836000000000003379900000000015794413000000000000000009999123100000010000000000000BRENGICDAM16140
012026010702ENGI3       010ENERGISA    ON      N2   R$  000000000128100000000012830000000001223000000000126300000000012300000000001230000000000125000069000000000000008400000000000010609400000000000000009999123100000010000000000000BRENGIACNOR0150
012026010702TEND3       010TENDA       ON  ED  NM   R$  000000000260000000000026000000000002433000000000246700000000024570000000002457000000000246009079000000000002266800000000005594073100000000000000009999123100000010000000000000BRTENDACNOR4114
012026010702TFCO4       010TRACK FIELD PN  EJ  N2   R$  000000000162500000000016250000000001578000000000160200000000016130000000001596000000000161302100000000000000426000000000000682570600000000000000009999123100000010000000000000BRTFCOACNPR8121
012026010702TGMA3       010TEGMA       ON      NM   R$  000000000367600000000036760000000003601000000000361800000000036100000000003610000000000362500674000000000000093400000000000337945200000000000000009999123100000010000000000000BRTGMAACNOR7150
012026010702TIMS3       010TIM         ON  EJ  NM   R$  000000000215700000000021900000000002151000000000217100000000021700000000002156000000000217022465000000000010583500000000022986685200000000000000009999123100000010000000000000BRTIMSACNOR5129
012026010702TKNO4       010TEKNO       PN           R$  000000002040000000000209500000000020400000000002087100000000209500000000020600000000002095000003000000000000000700000000000014610000000000000000009999123100000010000000000000BRTKNOACNPR5080
012026010702FIQE3       010UNIFIQUE    ON  EDB NM   R$  000000000049300000000004960000000000476000000000048600000000004930000000000489000000000049301830000000000000605500000000000294588200000000000000009999123100000010000000000000BRFIQEACNOR5112
012026010702FLRY3       010FLEURY      ON      NM   R$  000000000156400000000015640000000001522000000000153800000000015350000000001535000000000153810170000000000002482100000000003817638300000000000000009999123100000010000000000000BRFLRYACNOR5143
012026010702FRAS3       010FRAS-LE     ON      N1   R$  000000000241600000000024160000000002350000000000236800000000023740000000002370000000000237701537000000000000296900000000000703189500000000000000009999123100000010000000000000BRFRASACNOR0163
012026010702BRST3       010BRISANET    ON      NM   R$  000000000033600000000003470000000000331000000000033800000000003420000000000340000000000034200823000000000000288000000000000097503300000000000000009999123100000010000000000000BRBRSTACNOR9102
012026010702BSLI3       010BRB BANCO   ON           R$  000000000069700000000006990000000000666000000000068200000000006660000000000666000000000069700017000000000000003300000000000002251200000000000000009999123100000010000000000000BRBSLIACNOR5198
012026010702BSLI4       010BRB BANCO   PN           R$  000000000071200000000007420000000000712000000000072800000000007120000000000710000000000074000007000000000000000700000000000000509900000000000000009999123100000010000000000000BRBSLIACNPR2198
012026010702PCAR3       010P.ACUCAR-CBDON      NM   R$  000000000039900000000004030000000000395000000000039900000000004010000000000400000000000040106282000000000003025200000000001208086000000000000000009999123100000010000000000000BRPCARACNOR3169
012026010702POSI3       010POSITIVO TECON  ED  NM   R$  000000000041000000000004100000000000402000000000040600000000004090000000000407000000000041001528000000000001409500000000000573594300000000000000009999123100000010000000000000BRPOSIACNOR9118
012026010702PRIO3       010PETRORIO    ON      NM   R$  000000000406500000000041400000000004019000000000408000000000041070000000004106000000000411128281000000000010893600000000044452550800000000000000009999123100000010000000000000BRPRIOACNOR1111
012026010702PTBL3       010PORTOBELLO  ON      NM   R$  000000000032500000000003300000000000323000000000032500000000003250000000000325000000000032900258000000000000064700000000000021053800000000000000009999123100000010000000000000BRPTBLACNOR8132
012026010702PTNT3       010PETTENATI   ON           R$  000000000084100000000008750000000000840000000000085400000000008600000000000853000000000087700011000000000000002000000000000001708400000000000000009999123100000010000000000000BRPTNTACNOR6044
012026010702PTNT4       010PETTENATI   PN           R$  000000000046900000000004770000000000463000000000046700000000004630000000000463000000000047100004000000000000000700000000000000327000000000000000009999123100000010000000000000BRPTNTACNPR3049
012026010702ENGI4       010ENERGISA    PN      N2   R$  000000000087400000000008740000000000856000000000085800000000008610000000000857000000000086100124000000000000026400000000000022677200000000000000009999123100000010000000000000BRENGIACNPR7146
012026010702CAMB3       010CAMBUCI     ON           R$  000000000099600000000009980000000000973000000000097700000000009730000000000973000000000097600041000000000000034500000000000033713500000000000000009999123100000010000000000000BRCAMBACNOR4136
012026010702CAML3       010CAMIL       ON      NM   R$  000000000055300000000005540000000000547000000000054900000000005490000000000547000000000054901759000000000000552900000000000304086200000000000000009999123100000010000000000000BRCAMLACNOR3134
012026010702CASH3       010MELIUZ      ON      NM   R$  000000000040000000000004120000000000392000000000040200000000004070000000000406000000000040702168000000000001831500000000000736848600000000000000009999123100000010000000000000BRCASHACNOR8107
012026010702BRAV3       010BRAVA       ON      NM   R$  000000000156500000000016190000000001483000000000154400000000016130000000001613000000000161429795000000000017776300000000027453867800000000000000009999123100000010000000000000BRBRAVACNOR3103
012026010702CEBR5       010CEB         PNA          R$  000000000260000000000026180000000002584000000000260000000000026180000000002583000000000261800003000000000000000300000000000000780200000000000000009999123100000010000000000000BRCEBRACNPA8128
012026010702CEBR6       010CEB         PNB          R$  000000000289900000000028990000000002830000000000284600000000028300000000002824000000000285000036000000000000005300000000000015085900000000000000009999123100000010000000000000BRCEBRACNPB6128
012026010702CEDO4       010CEDRO       PN      N1   R$  000000000100300000000010030000000001003000000000100300000000010030000000001003000000000104000001000000000000000400000000000000401200000000000000009999123100000010000000000000BRCEDOACNPR5128
012026010702CEEB3       010COELBA      ON  EJ       R$  000000000447900000000044790000000004400000000000445200000000044750000000004300000000000440000006000000000000000600000000000002671200000000000000009999123100000010000000000000BRCEEBACNOR3207
012026010702CGAS5       010COMGAS      PNA          R$  000000001309800000000131000000000013003000000001307900000000130030000000012990000000001309900005000000000000000500000000000006539900000000000000009999123100000010000000000000BRCGASACNPA3165
012026010702CGRA3       010GRAZZIOTIN  ON  EB       R$  000000000273500000000027820000000002600000000000269900000000027000000000002700000000000273900033000000000000003800000000000010258300000000000000009999123100000010000000000000BRCGRAACNOR2088
012026010702CGRA4       010GRAZZIOTIN  PN  EB       R$  000000000275900000000027730000000002628000000000267200000000026980000000002674000000000271500136000000000000019700000000000052647800000000000000009999123100000010000000000000BRCGRAACNPR9088
012026010702EKTR4       010ELEKTRO     PN  EJ       R$  000000000392500000000039250000000003925000000000392500000000039250000000003785000000000399900001000000000000000100000000000000392500000000000000009999123100000010000000000000BREKTRACNPR7174
012026010702EMAE4       010EMAE        PN           R$  000000000452500000000045250000000004220000000000436200000000043490000000004247000000000435000030000000000000005000000000000021812400000000000000009999123100000010000000000000BREMAEACNPR1128
012026010702EMBJ3       010EMBRAER     ON      NM   R$  000000000936100000000095450000000009265000000000940900000000093910000000009389000000000939117235000000000003236700000000030456650700000000000000009999123100000010000000000000BREMBJACNOR1102
012026010702ARND3       010ARANDU      ON      NM   R$  000000000011500000000001150000000000115000000000011500000000001150000000000095000000000011500002000000000000000500000000000000057500000000000000009999123100000010000000000000BRARNDACNOR6100
012026010702ASAI3       010ASSAI       ON  EJ  NM   R$  000000000078000000000007910000000000731000000000074300000000007310000000000731000000000073217401000000000015503800000000011529887400000000000000009999123100000010000000000000BRASAIACNOR0109
012026010702ATED3       010ATOM EDUC   ON           R$  000000000020400000000002050000000000200000000000020100000000002010000000000201000000000020400040000000000000020300000000000004081700000000000000009999123100000010000000000000BRATEDACNOR1100
012026010702BIOM3       010BIOMM       ON      MA   R$  000000000077000000000007700000000000724000000000074400000000007250000000000725000000000073700210000000000000061800000000000046008500000000000000009999123100000010000000000000BRBIOMACNOR2113
012026010702BLAU3       010BLAU        ON  EB  NM   R$  000000000105700000000010740000000001045000000000105400000000010540000000001051000000000105601745000000000000379500000000000400011700000000000000009999123100000010000000000000BRBLAUACNOR8120
012026010702TRIS3       010TRISUL      ON  ED  NM   R$  000000000062600000000006260000000000610000000000061500000000006100000000000610000000000061700325000000000000134400000000000082706000000000000000009999123100000010000000000000BRTRISACNOR4122
012026010702TTEN3       0103TENTOS     ON  ED  NM   R$  000000000165300000000016530000000001612000000000162100000000016160000000001615000000000161905007000000000000918100000000001488482300000000000000009999123100000010000000000000BRTTENACNOR0105
012026010702TUPY3       010TUPY        ON      NM   R$  000000000117500000000011880000000001163000000000117200000000011700000000001170000000000117503682000000000000881100000000001033436000000000000000009999123100000010000000000000BRTUPYACNOR1185
012026010702GMAT3       010GRUPO MATEUSON      NM   R$  000000000045800000000004650000000000444000000000045000000000004470000000000446000000000044710117000000000010556500000000004758338500000000000000009999123100000010000000000000BRGMATACNOR7109
012026010702GOAU3       010GERDAU MET  ON      N1   R$  000000000087500000000008860000000000866000000000087800000000008840000000000880000000000088500158000000000000031100000000000027333100000000000000009999123100000010000000000000BRGOAUACNOR1274
012026010702GOAU4       010GERDAU MET  PN      N1   R$  000000000092300000000009300000000000907000000000092100000000009270000000000927000000000092813243000000000007702600000000007094746500000000000000009999123100000010000000000000BRGOAUACNPR8275
012026010702UCAS3       010UNICASA     ON      NM   R$  000000000013600000000001380000000000134000000000013700000000001380000000000136000000000013800047000000000000028300000000000003893700000000000000009999123100000010000000000000BRUCASACNOR1114
012026010702UGPA3       010ULTRAPAR    ON      NM   R$  000000000209900000000021020000000002052000000000207000000000020830000000002081000000000208413250000000000005383600000000011147920200000000000000009999123100000010000000000000BRUGPAACNOR8159
012026010702VALE3       010VALE        ON      NM   R$  000000000761000000000077340000000007562000000000765900000000076320000000007630000000000763268813000000000041501600000000317861945000000000000000009999123100000010000000000000BRVALEACNOR0218
012026010702VITT3       010VITTIA      ON  EJ  NM   R$  000000000047600000000004760000000000463000000000046800000000004700000000000470000000000047400383000000000000048000000000000022472100000000000000009999123100000010000000000000BRVITTACNOR4112
012026010702VIVA3       010VIVARA S.A. ON      NM   R$  000000000302000000000030310000000002915000000000295400000000029930000000002988000000000299622446000000000006782700000000020039764900000000000000009999123100000010000000000000BRVIVAACNOR0109
012026010702MRVE3       010MRV         ON      NM   R$  000000000083600000000008410000000000796000000000081000000000008010000000000801000000000080212166000000000006538700000000005297966500000000000000009999123100000010000000000000BRMRVEACNOR2128
012026010702RAPT3       010RANDON PART ON      N1   R$  000000000059500000000006200000000000595000000000060300000000006200000000000616000000000061900045000000000000024500000000000014780900000000000000009999123100000010000000000000BRRAPTACNOR7166
012026010702RAPT4       010RANDON PART PN      N1   R$  000000000059800000000006210000000000591000000000060800000000006140000000000614000000000061804328000000000003386600000000002060335400000000000000009999123100000010000000000000BRRAPTACNPR4166
012026010702RCSL3       010RECRUSUL    ON           R$  000000000025800000000002690000000000242000000000025800000000002590000000000258000000000026000401000000000000429700000000000110945100000000000000009999123100000010000000000000BRRCSLACNOR4134
012026010702RCSL4       010RECRUSUL    PN           R$  000000000081900000000009000000000000738000000000083200000000008800000000000880000000000089508332000000000006367600000000005297974300000000000000009999123100000010000000000000BRRCSLACNPR1134
012026010702RDOR3       010REDE D OR   ON      NM   R$  000000000422800000000042690000000004080000000000411800000000040990000000004095000000000410221132000000000004652600000000019161651000000000000000009999123100000010000000000000BRRDORACNOR8119
012026010702VBBR3       010VIBRA       ON      NM   R$  000000000253700000000025680000000002512000000000253400000000025480000000002547000000000254914798000000000006623700000000016788899800000000000000009999123100000010000000000000BRVBBRACNOR1114
012026010702KLBN11      010KLABIN S/A  UNT     N2   R$  000000000185200000000018640000000001834000000000184100000000018350000000001835000000000184409554000000000003372000000000006210905700000000000000009999123100000010000000000000BRKLBNCDAM18151
012026010702KLBN3       010KLABIN S/A  ON      N2   R$  000000000037500000000003760000000000368000000000037000000000003690000000000369000000000037001424000000000000649900000000000240825200000000000000009999123100000010000000000000BRKLBNACNOR2179
012026010702KLBN4       010KLABIN S/A  PN      N2   R$  000000000037200000000003740000000000367000000000036900000000003680000000000368000000000036903752000000000002826200000000001045237100000000000000009999123100000010000000000000BRKLBNACNPR9179
012026010702INEP3       010INEPAR      ON           R$  000000000014800000000001500000000000142000000000014600000000001450000000000145000000000014800040000000000000047200000000000006907200000000000000009999123100000010000000000000BRINEPACNOR1145
012026010702INEP4       010INEPAR      PN           R$  000000000011900000000001190000000000115000000000011700000000001170000000000116000000000011800022000000000000020600000000000002413200000000000000009999123100000010000000000000BRINEPACNPR8145
012026010702INTB3       010INTELBRAS   ON      NM   R$  000000000118300000000011860000000001165000000000117100000000011720000000001171000000000117802379000000000000672900000000000788511600000000000000009999123100000010000000000000BRINTBACNOR9115
012026010702BMEB3       010MERCANTIL   ON  EDS N1   R$  000000000549800000000054980000000005050000000000536000000000050500000000005050000000000519900011000000000000001700000000000009112900000000000000009999123100000010000000000000BRBMEBACNOR8210
012026010702BMEB4       010MERCANTIL   PN  EDS N1   R$  000000000568600000000059600000000005612000000000582700000000058580000000005852000000000593900347000000000000047500000000000276782800000000000000009999123100000010000000000000BRBMEBACNPR5215
012026010702BMGB4       010BANCO BMG   PN  EJ  N1   R$  000000000051700000000005190000000000506000000000051100000000005060000000000506000000000050701184000000000000653200000000000334157300000000000000009999123100000010000000000000BRBMGBACNPR0117
012026010702BMKS3       010BIC MONARK  ON  ED       R$  000000003766200000000389970000000037601000000003796000000000376010000000037600000000003899300006000000000000000012000000000000455520000000000000009999123100000010000000000000BRBMKSACNOR9169
012026010702BMOB3       010BEMOBI TECH ON      NM   R$  000000000226100000000022670000000002191000000000222000000000022210000000002209000000000222102412000000000000323700000000000718723100000000000000009999123100000010000000000000BRBMOBACNOR7107
012026010702IRBR3       010IRBBRASIL REON      NM   R$  000000000529000000000052900000000005120000000000515800000000051260000000005122000000000512604351000000000001123500000000005795284400000000000000009999123100000010000000000000BRIRBRACNOR4113
012026010702JHSF3       010JHSF PART   ON      NM   R$  000000000079200000000007960000000000783000000000078800000000007900000000000787000000000079007093000000000002241000000000001766371100000000000000009999123100000010000000000000BRJHSFACNOR2154
012026010702JSLG3       010JSL         ON  EDJ NM   R$  000000000061000000000006200000000000604000000000060900000000006090000000000608000000000060901477000000000000748800000000000456438400000000000000009999123100000010000000000000BRJSLGACNOR2123
012026010702KEPL3       010KEPLER WEBERON      NM   R$  000000000100700000000010070000000000993000000000099900000000010050000000000999000000000100502666000000000001678900000000001678671700000000000000009999123100000010000000000000BRKEPLACNOR1069
012026010702MILS3       010MILLS       ON      NM   R$  000000000143300000000014440000000001428000000000143600000000014350000000001435000000000143703095000000000000644500000000000926013100000000000000009999123100000010000000000000BRMILSACNOR2132
012026010702MLAS3       010MULTILASER  ON  ED  NM   R$  000000000014000000000001400000000000135000000000013600000000001380000000000138000000000013900604000000000000534200000000000073184500000000000000009999123100000010000000000000BRMLASACNOR9102
012026010702MNDL3       010MUNDIAL     ON           R$  000000000155100000000015510000000001550000000000155000000000015500000000001500000000000155000007000000000000002100000000000003255500000000000000009999123100000010000000000000BRMNDLACNOR4109
012026010702MNPR3       010MINUPAR     ON           R$  000000000045600000000004660000000000445000000000045200000000004590000000000451000000000045800034000000000000008500000000000003845900000000000000009999123100000010000000000000BRMNPRACNOR5123
012026010707RIOS3       010RIO ALTO    ON           R$  000000000336100000000033610000000003361000000000336100000000033610000000002500000000000000000001000000000000000100000000000000336100000000000000009999123100000010000000000000BRRIOSACNOR5101
012026010708BDLL4       010BARDELLA    PN           R$  000000000062000000000006200000000000620000000000062000000000006200000000000623000000000066000002000000000000000500000000000000310000000000000000009999123100000010000000000000BRBDLLACNPR8151
012026010708HOOT4       010HOTEIS OTHONPN           R$  000000000062300000000006230000000000608000000000060900000000006080000000000608000000000061200015000000000000026800000000000016340000000000000000009999123100000010000000000000BRHOOTACNPR9015
012026010708LIGT3       010LIGHT S/A   ON      NM   R$  000000000048700000000004870000000000467000000000047200000000004700000000000469000000000047001791000000000000824400000000000389120200000000000000009999123100000010000000000000BRLIGTACNOR2125
012026010708AMBP3       010AMBIPAR     ON      NM   R$  000000000003700000000000400000000000031000000000003300000000000310000000000031000000000003204929000000000052753300000000001788717900000000000000009999123100000010000000000000BRAMBPACNOR6105
012026010708AMER3       010AMERICANAS  ON      NM   R$  000000000051000000000005100000000000487000000000049300000000004950000000000495000000000049703616000000000002241000000000001105582000000000000000009999123100000010000000000000BRAMERACNOR6103
012026010708BOBR4       010BOMBRIL     PN           R$  000000000012700000000001270000000000127000000000012700000000001270000000000126000000000012700005000000000000000800000000000000101600000000000000009999123100000010000000000000BRBOBRACNPR3128
012026010708PMAM3       010PARANAPANEMAON      NM   R$  000000000007000000000000720000000000067000000000006900000000000690000000000069000000000007000410000000000001694600000000000117540000000000000000009999123100000010000000000000BRPMAMACNOR3045
012026010708OIBR3       010OI          ON      N1   R$  000000000001800000000000180000000000016000000000001600000000000160000000000016000000000001700383000000000004556000000000000076947300000000000000009999123100000010000000000000BROIBRACNOR1112
012026010708OIBR4       010OI          PN      N1   R$  000000000019800000000001980000000000175000000000018300000000001800000000000180000000000018100087000000000000025500000000000004691000000000000000009999123100000010000000000000BROIBRACNPR8111
012026010708OSXB3       010OSX BRASIL  ON      NM   R$  000000000018500000000001850000000000185000000000018500000000001850000000000184000000000020400006000000000000000700000000000000129500000000000000009999123100000010000000000000BROSXBACNOR8109
012026010708RPMG3       010PET MANGUINHON           R$  000000000021500000000002150000000000208000000000021200000000002080000000000208000000000021300005000000000000001100000000000000233400000000000000009999123100000010000000000000BRRPMGACNOR9194
012026010708RSID3       010ROSSI RESID ON      NM   R$  000000000016000000000001600000000000160000000000016000000000001600000000000160000000000016800006000000000000004500000000000000720000000000000000009999123100000010000000000000BRRSIDACNOR8121
012026010708AGXY3       010AGROGALAXY  ON      NM   R$  000000000042200000000004350000000000422000000000042700000000004290000000000425000000000043000098000000000000011000000000000004707200000000000000009999123100000010000000000000BRAGXYACNOR4104
012026010708JFEN3       010JOAO FORTES ON           R$  000000000011200000000001120000000000100000000000010100000000001020000000000102000000000010900027000000000000018100000000000001834200000000000000009999123100000010000000000000BRJFENACNOR0061
012026010710REDE1       010REDE ENERGIADIR ORD      R$  000000000011200000000001120000000000108000000000011000000000001100000000000110000000000016000005000000000000000600000000000000066000000000000000009999123100000010000000000000BRREDED06OR1133
012026010710VIVR1       010VIVER       DIR ORD NM   R$  000000000000100000000000010000000000001000000000000100000000000010000000000000000000000000100008000000000000009300000000000000009300000000000000009999123100000010000000000000BRVIVRD19OR1124
012026010710AALR1       010ALLIAR      DIR ORD NM   R$  000000000000300000000000030000000000002000000000000200000000000030000000000002000000000000300063000000000000123700000000000000259300000000000000009999123100000010000000000000BRAALRD02OR9103
012026010710ABCB2       010ABC BRASIL  DIR PRE N2   R$  000000000043100000000004470000000000404000000000043500000000004350000000000435000000000043800274000000000000279800000000000121926900000000000000009999123100000010000000000000BRABCBD19PR1149
012026010710PGMN1       010PAGUE MENOS DIR ORD NM   R$  000000000013300000000001330000000000095000000000010100000000000980000000000097000000000009800359000000000000079500000000000008058400000000000000009999123100000010000000000000BRPGMND05OR4105
012026010710BMEB1       010MERCANTIL   DIR ORD N1   R$  000000000246000000000025300000000002450000000000247800000000024880000000002488000000000248900033000000000000004700000000000011648400000000000000009999123100000010000000000000BRBMEBD04OR7209
012026010712BGRB11      010FII BGRB    CI  ER       R$  000000001049900000000109990000000010014000000001050400000000109990000000010011000000001099900007000000000000000205000000000002153510000000000000009999123100000010000000000000BRBGRBCTF005114
012026010712BRCO11      010FII BRESCO  CI  ER       R$  000000001183600000000118360000000011753000000001178100000000117600000000011760000000001179304669000000000000017991000000000211969745000000000000009999123100000010000000000000BRBRCOCTF007177
012026010712BRCR11      010FII BC FUND CI           R$  000000000471500000000047980000000004710000000000476500000000047980000000004781000000000479803901000000000000089775000000000427784415000000000000009999123100000010000000000000BRBRCRCTF000285
012026010712BRIM11      010FII BRIO II CI  EA       R$  000000002202400000000249990000000022024000000002310900000000225000000000022000000000002369900015000000000000000031000000000000716390000000000000009999123100000010000000000000BRBRIMCTF008138
012026010712BRIP11      010FII BRIO IIICI           R$  000000004752400000000501940000000047524000000004885900000000501940000000048000000000005019400002000000000000000002000000000000097718000000000000009999123100000010000000000000BRBRIPCTF001128
012026010712DAMA11      010FII DAMA    CI           R$  000000000073900000000007470000000000707000000000073500000000007450000000000722000000000074500035000000000000000496000000000000364913000000000000009999123100000010000000000000BRDAMACTF007119
012026010712DAMT11      010FII DIAMANTECI           R$  000000000095000000000009500000000000824000000000084500000000008240000000000845000000000140000002000000000000000006000000000000005070000000000000009999123100000010000000000000BRDAMTCTF007118
012026010712DAYM11      010FII DAYC REMCI           R$  000000000040000000000004140000000000390000000000039900000000003910000000000390000000000039900196000000000000061913000000000024754898000000000000009999123100000010000000000000BRDAYMCTF007105
012026010712DEVA11      010FII DEVANT  CI           R$  000000000268600000000026990000000002666000000000267900000000026740000000002671000000000267400818000000000000020493000000000054909177000000000000009999123100000010000000000000BRDEVACTF000167
012026010712ERPA11      010FII EUROPA  CI           R$  000000001309900000000130990000000013099000000001309900000000130990000000012001000000001310000001000000000000000005000000000000065495000000000000009999123100000010000000000000BRERPACTF002147
012026010712EURO11      010FII EUROPAR CI  ER       R$  000000003150100000000322000000000030142000000003181100000000321000000000030155000000003210000021000000000000000059000000000001876856000000000000009999123100000010000000000000BREUROCTF011378
012026010712EXES11      010FII EXES    CI           R$  000000000095000000000009500000000000944000000000094600000000009470000000000945000000000094700139000000000000015472000000000014639999000000000000009999123100000010000000000000BREXESCTF006145
012026010712FAED11      010FII ANH EDUCCI           R$  000000001550000000000155990000000015307000000001550700000000153460000000015346000000001550000045000000000000000178000000000002760393000000000000009999123100000010000000000000BRFAEDCTF003296
012026010712FAMB11      010FII ALMIRANTCI           R$  000000010401800000001040180000000102500000000010319100000001030000000000100150000000010299900007000000000000000008000000000000825528000000000000009999123100000010000000000000BRFAMBCTF018319
012026010712FATN11      010FII ATHENA ICI           R$  000000000864800000000086490000000008578000000000861100000000086000000000008600000000000860104461000000000000019422000000000167247227000000000000009999123100000010000000000000BRFATNCTF000172
012026010712FCFL11      010FII CAMPUSFLCI           R$  000000001266900000000126700000000012462000000001258200000000124620000000012462000000001255000021000000000000000054000000000000679457000000000000009999123100000010000000000000BRFCFLCTF009288
012026010712FIGS11      010FII GEN SHOPCI  ER       R$  000000000469000000000046900000000004580000000000461800000000046270000000004592000000000462700437000000000000010488000000000048440242000000000000009999123100000010000000000000BRFIGSCTF009247
012026010712FIIB11      010FII INDL BR CI  ER       R$  000000004780100000000479000000000047439000000004773600000000474390000000047439000000004765000242000000000000000706000000000033702187000000000000009999123100000010000000000000BRFIIBCTF001270
012026010712FIIP11      010FII RB CAP ICI  ER       R$  000000001534400000000154810000000015017000000001521300000000154400000000015213000000001544000220000000000000005109000000000077727416000000000000009999123100000010000000000000BRFIIPCTF001294
012026010712BCIA11      010FII BCIA    CI  ER       R$  000000000880000000000088000000000008772000000000879600000000087970000000008785000000000879700525000000000000002158000000000018982202000000000000009999123100000010000000000000BRBCIACTF005229
012026010712BCRI11      010FII BEES CRICI  ER       R$  000000000693500000000069740000000006850000000000693800000000069050000000006870000000000690500681000000000000007016000000000048677708000000000000009999123100000010000000000000BRBCRICTF009234
012026010712CXTL11      010FII CX TRX  CI  ER       R$  000000003323700000000332370000000033237000000003323700000000332370000000030471000000003559900001000000000000000003000000000000099711000000000000009999123100000010000000000000BRCXTLCTF003255
012026010712CYCR11      010FII CYRELA  CI  ER       R$  000000000087900000000008850000000000870000000000087700000000008810000000000878000000000088103615000000000000077964000000000068431861000000000000009999123100000010000000000000BRCYCRCTF004158
012026010712EQIR11      010FII EQI RECECI           R$  000000000082000000000008320000000000820000000000082400000000008260000000000826000000000083200111000000000000008560000000000007059074000000000000009999123100000010000000000000BREQIRCTF003151
012026010712HBCR11      010FII HBC REN CI           R$  000000001460900000000146090000000014400000000001453900000000144000000000013600000000001440000002000000000000000003000000000000043618000000000000009999123100000010000000000000BRHBCRCTF001161
012026010712HCHG11      010FII HECT CRICI  ER       R$  000000000801400000000080200000000008013000000000801300000000080140000000008014000000000802000010000000000000000147000000000001177933000000000000009999123100000010000000000000BRHCHGCTF001156
012026010712HCRI11      010FII CRIANCA CI           R$  000000002968900000000296910000000029331000000002946400000000296470000000029333000000002964600022000000000000000054000000000001591103000000000000009999123100000010000000000000BRHCRICTF006347
012026010712HCST11      010FII HECT DESCI           R$  000000000458600000000045860000000004586000000000458600000000045860000000004581000000000600000001000000000000000004000000000000018344000000000000009999123100000010000000000000BRHCSTCTF001102
012026010712HCTR11      010FII HECTARE CI           R$  000000000216200000000021650000000002157000000000216200000000021610000000002161000000000216301247000000000000026417000000000057117628000000000000009999123100000010000000000000BRHCTRCTF003187
012026010712HFOF11      010FII HTOPFOF3CI  ER       R$  000000000064200000000006440000000000637000000000064000000000006430000000000643000000000064405369000000000000671034000000000430123449000000000000009999123100000010000000000000BRHFOFCTF002210
012026010712HGBL11      010FII HGBL    CI  ER       R$  000000000094700000000009470000000000921000000000092300000000009470000000000923000000000094700080000000000000544403000000000502524479000000000000009999123100000010000000000000BRHGBLCTF005125
012026010712HGBS11      010FII HEDGEBS CI  ER       R$  000000000199200000000019930000000001986000000000199100000000019920000000001990000000000199213943000000000000132213000000000263250472000000000000009999123100000010000000000000BRHGBSCTF000331
012026010712BROF11      010FII BROF    CI           R$  000000000575600000000057640000000005533000000000555700000000055330000000005533000000000569000366000000000000027830000000000154655204000000000000009999123100000010000000000000BRBROFCTF000132
012026010712CPLG11      010FII CPLG    CI           R$  000000000131500000000013150000000001310000000000131100000000013150000000001308000000000131500070000000000000001880000000000002465674000000000000009999123100000010000000000000BRCPLGCTF006114
012026010712CPSH11      010FII CPSH    CI           R$  000000000110200000000011020000000001090000000000109800000000010970000000001097000000000109804487000000000001412569000000001551827664000000000000009999123100000010000000000000BRCPSHCTF017133
012026010712HGCR11      010FII HGCR PAXCI  ER       R$  000000000985500000000098850000000009812000000000983600000000098160000000009816000000000986503355000000000000020839000000000204988860000000000000009999123100000010000000000000BRHGCRCTF000265
012026010712HGIC11      010FII HGI CRI CI           R$  000000000650000000000066000000000006500000000000654700000000066000000000006500000000000660000021000000000000000100000000000000654753000000000000009999123100000010000000000000BRHGICCTF009158
012026010712HGLG11      010FII HGLG PAXCI  ER       R$  000000001571200000000157250000000015678000000001570000000000156930000000015690000000001569416891000000000000118353000000001858152382000000000000009999123100000010000000000000BRHGLGCTF004291
012026010712HGPO11      010FII HGPO PAXCI           R$  000000001464400000000146440000000014501000000001451100000000145010000000014501000000001456000049000000000000000239000000000003468316000000000000009999123100000010000000000000BRHGPOCTF009166
012026010712HGRE11      010FII HGRE PAXCI  ER       R$  000000001245000000000124950000000012362000000001241600000000124210000000012382000000001242103202000000000000015005000000000186305333000000000000009999123100000010000000000000BRHGRECTF006311
012026010712HGRU11      010FII HGRU PAXCI  ER       R$  000000001260000000000126110000000012569000000001259100000000125810000000012581000000001259909362000000000000036984000000000465687206000000000000009999123100000010000000000000BRHGRUCTF002196
012026010712HLOG11      010FII HEDGELOGCI  ER       R$  000000000093300000000009330000000000916000000000092300000000009220000000000922000000000093200062000000000000004732000000000004372031000000000000009999123100000010000000000000BRHLOGCTF008176
012026010712HOFC11      010FII HOFFICEICI           R$  000000000294300000000030950000000002943000000000301100000000029660000000002960000000000304000019000000000000000089000000000000268050000000000000009999123100000010000000000000BRHOFCCTF009115
012026010712HOMS11      010FII HOMS    CI           R$  000000001213800000000121380000000012138000000001213800000000121380000000000000000000000000000001000000000000000068000000000000825384000000000000009999123100000010000000000000BRHOMSCTF001100
012026010712CPTS11      010FII CAPI SECCI           R$  000000000078300000000007830000000000780000000000078000000000007820000000000781000000000078216873000000000001764593000000001378070937000000000000009999123100000010000000000000BRCPTSCTF004251
012026010712CPUR11      010FII CPHBC URCI           R$  000000000109800000000011030000000001063000000000107400000000011000000000001064000000000110000074000000000012755093000000013699019510000000000000009999123100000010000000000000BRCPURCTF004116
012026010712CRFF11      010FII CX RBRA2CI  ER       R$  000000000730000000000076520000000007300000000000739800000000073020000000007302000000000765200006000000000000000008000000000000059184000000000000009999123100000010000000000000BRCRFFCTF006180
012026010712HOSI11      010FII HOUSI   CI  ER       R$  000000000854200000000085420000000008542000000000854200000000085420000000008350000000000852800002000000000000000003000000000000025626000000000000009999123100000010000000000000BRHOSICTF009162
