00COTAHIST.2026BOVESPA 20260225                                                                                                                                                                                                                      
012026022502PETR4       010PETROBRAS   PN N1        R$  00000000035200000000003650000000000348000000000035600000000003580000000000357000000000035903456100000000000015000000000000000537600000000000000009999123100000100000000000000BRPETRACNPR6000 
012026022502VALE3       010VALE        ON NM        R$  00000000061000000000006350000000000600000000000062000000000006200000000000615000000000062502134400000000000008900000000000000551260000000000000009999123100000100000000000000BRVALEACNOR3000 
012026022502ITUB4       010ITAUBANCO   PN N1        R$  00000000029500000000003050000000000288000000000029800000000003000000000000298000000000030104567800000000000020000000000000000600000000000000000009999123100000100000000000000BRITUBACNPR4000 
012026022502BBDC4       010BRADESCO    PN N1        R$  00000000014800000000001560000000000144000000000015100000000001500000000000149000000000015202890100000000000017500000000000000262500000000000000009999123100000100000000000000BRBBDCACNPR4000 
012026022502WEGE3       010WEG         ON NM        R$  00000000039500000000004100000000000388000000000040000000000004000000000000398000000000040201923400000000000008500000000000000340000000000000000009999123100000100000000000000BRWEGEACNOR3000 
012026022502ABEV3       010AMBEV S/A   ON NM        R$  00000000013800000000001430000000000135000000000014000000000001400000000000139000000000014103245600000000000021000000000000000294000000000000000009999123100000100000000000000BRABEVACNOR3000 
012026022502RENT3       010LOCALIZA    ON NM        R$  00000000047500000000004900000000000468000000000048000000000004800000000000478000000000048201567800000000000006500000000000000312000000000000000009999123100000100000000000000BRRENTACNOR3000 
012026022596PETR4F      020PETROBRAS   PN N1        R$  00000000035500000000003680000000000350000000000035700000000003600000000000358000000000036201234500000000000005000000000000000180000000000000000009999123100000100000000000000BRPETRACNPR6000 
99COTAHIST.2026BOVESPA 20260225000000008                                                                                                                                                                                                            
